:03000000020026D5
:0C002600787FE4F6D8FD75811E02006DA5
:0802E20006116172636821003E
:10023800E4F508758920758DFD758BFDD28EC29FFA
:09024800D29ED29CD2ACD2AF22AE
:1000B20012021A120238E4F508E509B44118E4F50F
:1000C2001CE50860FCE4F5087D011201A8051CE5A9
:1000D2001CC3940640EBE509B44218E4F51CE5089C
:1000E20060FCE4F5087D021201A8051CE51CC3941E
:1000F2000640EBE509B4431CE4F51CE50860FCE4AA
:10010200F508AB097D03AF1C1201AC051CE51CC34D
:10011200940640E7E5096444709FF51CE51CC3940E
:10012200065096E50860FCE4F508AB097D04AF1CB7
:070132001201AC051C80E581
:030023000202D9FD
:0902D900C29885990975080132EB
:0602EB00E4FF0FBF32FC2E
:0102F10022EA
:10026A00EF1FAA0670011E4A600B7D7BEDD3940036
:05027A0040EE1D80F7BD
:01027F00225C
:100280008F1E1202AAD2B5C2B6851E80D2B4D2B4D5
:05029000D2B4C2B4224B
:060003007D017C007F017D
:100009008F1EED4C60031202AAC2B5C2B6851E80CE
:09001900D2B4D2B4D2B4C2B422B4
:0D02CC00D2B5D2B6C2B4C2B4D2B4AF802253
:1002AA007580FFC2B5D2B6D2B4E58020E7FBC2B4EE
:0302BA00AF8022F0
:10021A007D017C007F301200091200037D017C0001
:0E022A007F061200097D017C007F0C02000996
:100295001200037D017C007F341200097D017C0082
:0502A5007F300200099A
:0401A800AB09AF1CD4
:1001AC008B1DEDC3940150027D01EDD394044002EC
:1001BC007D0453070FED24FE600F146011146013BF
:1001CC0024037012430780800D4307908008430777
:1001DC00888003430798E4FDFC120009AF1D02025E
:0101EC008092
:080139008F178B188A19891A2F
:10014100E4F51BEDC3940150027D01EDD39404400D
:10015100027D0453170FED24FE600F14601114602B
:100161001324037012430780800D430790800843D6
:10017100078880034307987D017C00120009AB18B2
:10018100AA19A91A851B827583001201EDFFC39478
:10019100204013E517D3940F50E4120280051B058C
:0601A100171202BD80D818
:0101A7002235
:0E02BD007FB07E15EF1FAC0670011E4C70F670
:0102CB002210
:100251007D05AC051DEC60107E1C7F65EF1FAA06B5
:0802610070011E4A60EC80F4FC
:010269002272
:100032000200B2E493A3F8E493A34003F68001F232
:1000420008DFF48029E493A3F85407240CC8C333CF
:10005200C4540F4420C8834004F456800146F6DF9E
:10006200E4800B01020408102040809002E2E47E4A
:10007200019360BCA3FF543F30E509541FFEE49393
:10008200A360010ECF54C025E060A840B8E493A35A
:10009200FAE493A3F8E493A3C8C582C8CAC583CA85
:1000A200F0A3C8C582C8CAC583CADFE9DEE780BE3D
:0102EA000013
:1001ED00BB010CE58229F582E5833AF583E02250C7
:1001FD0006E92582F8E622BBFE06E92582F8E22211
:0D020D00E58229F582E5833AF583E493222A
:00000001FF
