:0300000002115A90
:0C115A00787FE4F6D8FD75812A0210862B
:10112D00758920758DFD758BFDD28E759850C2AF6A
:01113D00228F
:1010A300E4F52074102520F8E6F5991210D7C299BB
:0910B3000520E520C3940640EA83
:0110BC002211
:101086001210D712106812113E120E2C12113E12B7
:0D1096000D3912113E120B4112113E80EC7B
:06116600E4FF0FBF32FCA4
:01116C002260
:0410BD007F3C7E00F6
:1010C100EF1FAA0670011E4A600B7D7BEDD39400D1
:0510D10040EE1D80F758
:0110D60022F7
:100E2C007589F0438901758A47758CFFC28CC2A9FC
:100E3C00D2A000000000000000000000000000C272
:100E4C00A0C28CE4F58CF58A30A1FDD28C20A1FDDA
:100E5C00C28CAF8CEFFEAD8A7C00E42DFDEC3EFC29
:100E6C00E4120A248F1F8E1E8D1D8C1CE4FBFA7954
:100E7C007A7844120909E4FBFAF978401209098FCF
:100E8C001F8E1E8D1D8C1CE4FBFA79AA7843120868
:100E9C00008F1F8E1E8D1D8C1CE4FBFA792078416F
:100EAC001209098F1F8E1E8D1D8C1CE4FFFE7DA068
:100EBC007C41AB1FAA1EA91DA81C1209A65002C278
:100ECC00831210BDD283E4FFFE7D7A7C45AB1FAA52
:100EDC001EA91DA81C1209A6600D400BE4F51FF5F8
:100EEC001E751D7A751C45AF1FAE1EAD1DAC1C12B8
:100EFC000F1BE4F51B7409251B7D01AF1B1210059C
:0F0F0C00051BE51BC3940640EC12112D0210A328
:100D39007589F0438901758A47758CFFC28CC2A9F0
:100D4900D2A200000000000000000000000000C264
:100D5900A2C28CE4F58CF58A30A3FDD28C20A3FDC8
:100D6900C28CAF8CEFFEAD8A7C00E42DFDEC3EFC1D
:100D7900E4120A248F1F8E1E8D1D8C1CE4FBFA7948
:100D89007A7844120909E4FBFAF978401209098FC3
:100D99001F8E1E8D1D8C1CE4FBFA79AA784312085C
:100DA900008F1F8E1E8D1D8C1CE4FBFA7920784163
:100DB9001209098F1F8E1E8D1D8C1CE4FFFE7DA05C
:100DC9007C41AB1FAA1EA91DA81C1209A65002C26C
:100DD900831210BDD283E4FFFE7D7A7C45AB1FAA46
:100DE9001EA91DA81C1209A6600D400BE4F51FF5EC
:100DF9001E751D7A751C45AF1FAE1EAD1DAC1C12AC
:100E09000F1B0509E4F51B7409251B7D02AF1B1295
:100E19001005051BE51BC3940640EC051012112DA6
:030E29000210A311
:100C3F007589F0438901758A47758CFFC28CC2A9EB
:100C4F00D2A400000000000000000000000000C25D
:100C5F00A4C28CE4F58CF58A30A5FDD28C20A5FDBD
:100C6F00C28CAF8CEFFEAD8A7C00E42DFDEC3EFC18
:100C7F00E4120A248F268E258D248C23E4FBFA7927
:100C8F007A7844120909E4FBFAF978401209098FBE
:100C9F00268E258D248C23E4FBFA79AA784312083B
:100CAF00008F268E258D248C23E4FBFA7920784142
:100CBF001209098F268E258D248C23E4FFFE7DA03B
:100CCF007C41AB26AA25A924A8231209A65002C24B
:100CDF00831210BDD283E4FFFE7D7A7C45AB26AA3A
:100CEF0025A924A8231209A6600D400BE4F526F5CB
:100CFF002575247A752345AF26AE25AD24AC231276
:100D0F000F1B05090509E4F52274092522F8E6FBF6
:100D1F007D03AF221210080522E522C3940640E995
:0A0D2F000510051012112D0210A38B
:100B41007589F0438901758A47758CFFC28CC2A9EA
:100B5100D2A600000000000000000000000000C25A
:100B6100A6C28CE4F58CF58A30A7FDD28C20A7FDB6
:100B7100C28CAF8CEFFEAD8A7C00E42DFDEC3EFC17
:100B8100E4120A248F1F8E1E8D1D8C1CE4FBFA7942
:100B91007A7844120909E4FBFAF978401209098FBD
:100BA1001F8E1E8D1D8C1CE4FBFA79AA7843120856
:100BB100008F1F8E1E8D1D8C1CE4FBFA792078415D
:100BC1001209098F1F8E1E8D1D8C1CE4FFFE7DA056
:100BD1007C41AB1FAA1EA91DA81C1209A65002C266
:100BE100831210BDD283E4FFFE7D7A7C45AB1FAA40
:100BF1001EA91DA81C1209A6600D400BE4F51FF5E6
:100C01001E751D7A751C45AF1FAE1EAD1DAC1C12A5
:100C11000F1B74032509F509E4F51B7409251BF85D
:100C2100E6FB7D04AF1B121008051BE51BC39406F0
:0E0C310040E974032510F51012112D0210A3D6
:100F1B00120A5D8E158F167F3C7E001210C1AF1624
:020F2B00AE1501
:040F2D00AB07AA065E
:100F31007C007D64120ADE8F207C007D64AF03AEED
:100F410002120ADE7E007F0ACFCDCFCECCCE120AAE
:100F5100DE8F21AE02AF037C007D64120ADE7E00CB
:100F61007F0ACFCDCFCECCCE120ADEAF05751041B0
:100F7100E5202430FEF51175122EE5212430FDF512
:100F810013EF2430F51475156D7509418E0A750B33
:080F91002E8D0CF50D750E6D9F
:010F99002235
:1010F0008F2112111AD2B5C2B6852180D2B4D2B4D2
:05110000D2B4C2B422CC
:061049007D017C007F0127
:10104F008F21ED4C600312111AC2B5C2B6852180F3
:09105F00D2B4D2B4D2B4C2B4225E
:0D114D00D2B5D2B6C2B4C2B4D2B4AF8022C3
:10111A007580FFC2B5D2B6D2B4E58020E7FBC2B46F
:03112A00AF802271
:101068007D017C007F3012104F1210497D017C00F9
:0E1078007F0612104F7D017C007F0C02104F8E
:101105001210497D017C007F3412104F7D017C0057
:051115007F3002104FC5
:03100500F8E6FB0F
:101008008B20EDC3940150027D01EDD3940440027E
:101018007D0453070FED24FE600F14601114601354
:1010280024037012430780800D430790800843070C
:10103800888003430798E4FDFC12104FAF2002108C
:01104800F0B7
:060F9A008F278A288B2935
:100FA000E4F52AEDC3940150027D01EDD394044091
:100FB000027D0453270FED24FE600F1460111460AE
:100FC0001324037012430780800D43079080084369
:100FD000078880034307987D017C0012104FE529A4
:100FE000252AF582E43528F583E493FFC394204055
:100FF00013E527D3940F50E61210F0052A052712A7
:04100000113E80DA43
:0110040022C9
:0E113E007FB07E15EF1FAC0670011E4C70F6E0
:01114C002280
:1010D7007D05AC051DEC60107E1C7F65EF1FAA0621
:0810E70070011E4A60EC80F468
:0110EF0022DE
:10080000EC4D6011E8497017ED33EC3304600DE4F2
:10081000FCFFFEFD22E933E8330470F8020AC91236
:100820000A9458046009E4CC248150062850090237
:100830000AD3284003020AD0C0E0EB4A7044B980D2
:1008400006D0E0FB020ABFEF4E701CBD8008EBFF34
:10085000EAFEE9FD80EBE98DF0A4FEE5F00208E98F
:10086000E9CDF9EAFEEBFFEF89F0A4FCE5F0CE89D3
:10087000F0A42EFFE435F0CD89F0A42DFEE435F090
:100880008067EF4E7005BD80D780C3EF8BF0A4ACBE
:10089000F0EE8BF0A42CFCE435F0F8EF8AF0A42CF9
:1008A000E5F038FCE433CB8DF0A42CFCE5F03BF80C
:1008B000EE8AF0A42CFCE5F038F8E433CF89F0A4FC
:1008C0002CFCE5F038CF3400CE89F0A42FFFE5F002
:1008D0003EFEE433C98DF0A42EFEE5F039CD8AF05A
:1008E000A42FFFE5F03EFEE43DFD33D0E0FB5007D2
:1008F0000BBB000F020AD3EC2CFCEF33FFEE33FEF0
:06090000ED33FD020AAB1D
:10090600020AD3EC5D046005E859047003020AC9C3
:10091600120A94580460F6EC4860F2EC7004FDFE8E
:10092600FF22C860DB2481C85009C39860025006C4
:10093600020AD09850CAF582E9294B4A7005AB8263
:10094600020ABF75F0007C1A7880C3EF9BEE9AED21
:1009560099400DC3EF9BFFEE9AFEED99FDE842F03C
:10096600DC23ACF0D0E0FFD0E0FED0E0FDAB82208F
:10097600E7101BEB60BAEC2CFCEF33FFEE33FEED19
:1009860033FD020AABE803F830E705C0F075F00066
:10099600EF2FFFEE33FEED33FD40B830E7C280AAFD
:1009A60074F8CC6480CCC86480C8F58204604FC3F8
:1009B600EB9FF5F0EA9E42F0E99D42F0E89C45F097
:1009C600603C501DE5825FFFE582D313CB5BCBF421
:1009D6002B5582FB50280ABA002409B9002008804A
:1009E6001DE5825BFBE582D313CF5FCFF4C3132FE4
:1009F6005582FF50090EBE00050DBD00010CC3EB6C
:100A06009FF5F0EA9E42F0E99D42F0E89C45F060D1
:090A160007CC4820E701B3EC22F3
:100A1F0075F020800E75F010800575F0087D007E52
:100A2F00007F003392D530D503120B33EC334010D7
:100A3F00EF33FFEE33FEED33FDEC33FCD5F0ED225B
:0E0A4F00E5F0247EA2D513CC92E7CDCEFF2297
:100A5D00EDD2E7CD33EC3392D524814006E4FFFE91
:100A6D00FDFC22FCE4CFCECDCC24E0501174FF80F0
:100A7D00EDC3CC13CCCD13CDCE13CECF13CF04708D
:070A8D00F030D5DE020B334F
:100A9400E9D2E7C933E833F892D5EDD2E7CD33ECA8
:070AA40033FC5002B2D52221
:100AAB00EC30E7100FBF000C0EBE00080DBD0004AC
:100ABB000BEB6014A2D5EB13FCED92E7FD2274FF58
:100ACB00FCFDFEFF22E480F8A2D574FF13FC7D80B1
:030ADB00E480EFC5
:100ADE00BC000BBE0029EF8DF084FFADF022E4CCFC
:100AEE00F875F008EF2FFFEE33FEEC33FCEE9DECC5
:100AFE00984005FCEE9DFE0FD5F0E9E4CEFD22ED0B
:100B0E00F8F5F0EE8420D21CFEADF075F008EF2F54
:100B1E00FFED33FD4007985006D5F0F222C398FD45
:050B2E000FD5F0EA22E2
:0E0B3300C3E49FFFE49EFEE49DFDE49CFC22D3
:00000001FF
