:020000040800F2
:100000009020002009390008190500081B05000888
:100010001F05000823050008270500080000000050
:100020000000000000000000000000002B05000898
:100030002D050008000000002F050008310500080C
:100040002339000823390008233900082339000820
:100050002339000823390008233900082339000810
:100060002339000823390008233900082339000800
:1000700023390008233900082339000823390008F0
:1000800023390008233900082339000823390008E0
:1000900023390008233900082339000823390008D0
:1000A00023390008233900082339000823390008C0
:1000B00023390008233900082339000823390008B0
:1000C00023390008233900082339000823390008A0
:1000D000233900087D380008233900082339000837
:1000E00023390008233900082339000800F002F8FA
:1000F00000F062F80AA090E8000C82448344AAF160
:100100000107DA4501D100F057F8AFF2090EBAE85D
:100110000F0013F0010F18BFFB1A43F0010318473B
:10012000A0990000C09900000A444FF0000C10F89C
:10013000013B13F0070408BF10F8014B1D1108BF65
:1001400010F8015B641E05D010F8016B641E01F805
:10015000016BF9D113F0080F1EBF10F8014BAD1C55
:100160000C1B09D16D1E58BF01F801CBFAD505E073
:1001700014F8016B01F8016B6D1EF9D59142D6D3CD
:10018000704700000023002400250026103A28BFF5
:1001900078C1FBD8520728BF30C148BF0B607047F9
:1001A000782907F07B87732908F04A800020704780
:1001B0001FB51FBD10B510BD08F074F81146FFF74C
:1001C000F7FF00F058F808F092F803B4FFF7F2FFD9
:1001D00003BC03F0F9FA000030B5ADF50B7D044621
:1001E0001222214601A805F025FE05466DB901A899
:1001F000049906F077F9914B0E22914901A805F078
:10020000BDFF054601A806F025F901A806F022F970
:100210000DF50B7D30BD2DE9F041ADF5925D064643
:100220000F4614460122214641F21800684405F0A9
:1002300001FE0546DDB90DF58050824B06A9426AE4
:10024000183005F0AEFE054665B97FA23946304646
:1002500002F0F4FC0120102306AA39460090304633
:1002600007F007FE41F21800684406F0F3F80DF5B8
:10027000925DBDE8F081ADF5167D1C227AA18FA8B4
:1002800007F03AFF00F0C4F9482003F043FA03F006
:1002900095FA4FF4165003F0A5FA0D20684908733B
:1002A0000A20487300F034FA00F064FA03F01EF8F4
:1002B00000F096FD03F0B8F972A232213C2002F062
:1002C000BDFC02A9002005F096FD0A2404E03021BF
:1002D000601E5B4A1154C4B2002CF8DC26E04FF4D7
:1002E00078406B4908804FF6FF7000F05CFD65A216
:1002F00032213C2002F0A2FC66A246213C2002F002
:100300009DFC0FE068A25A213C2002F097FCC82017
:1003100003F01AFA6A48006808B9012000E00020DA
:100320006749086007F069FC0028EBD107F095FCED
:100330000028D4D148F21F4000F035FD4FF478403A
:1003400053490880002010235EA2DC2100903C204D
:1003500007F08FFD002010235CA2C82100903C20F4
:1003600007F087FD4FF47A7003F0EEF91F2048493B
:1003700008805BA24FF482713C2002F05FFC5CA21B
:100380004FF48C713C2002F059FC4FF000098FA80B
:1003900006F079FB51E0142003F0AAF98146594890
:1003A000A9EB00094FF4D07009FB00F95649A9EBFD
:1003B000010008F092F90746544A554B08F008F836
:1003C000054608F05DF9814610200B234A464FF49C
:1003D00096710090002002F0B9FB0B2415E009F0A3
:1003E000FF000A2190FBF1F201FB12003030C1B294
:1003F000601E134A1154B9F1000F01D1302111547C
:100400000A20B9FBF0F9601EC4B2002CE7DC4720DB
:100410000B49C8723FA007F0D7FD2948006808B90A
:10042000012000E00020264908608FA8FFF7D4FED5
:100430000DA200210846FFF7EEFEACE77C0100208C
:10044000A40100207801002020202020202020204E
:10045000202020202020202020202020202020209C
:100460002020202020200000303A2F6C6F6E67661D
:10047000696C656E616D6574657374302E74787423
:10048000000000004D696E692053544D3332000066
:1004900016000020466F6E74205570646174696E9A
:1004A000672E2E2E00000000464154205359532041
:1004B0004552524F522E20202020202000000000C4
:1004C000A001214241444332340000003230313433
:1004D00020C4EA20303920D4C220323720C8D500C9
:1004E0004144435F4348305F56414C3A00000000AE
:1004F0004144435F4348305F564F4C3A302E3030D2
:100500003056000010FD83006E47C71B06819543DF
:10051000DBB1DA4025730000704700BFFEE700BF83
:10052000FEE700BFFEE700BFFEE770477047704779
:10053000704700000CB50020019000906B480068E7
:1005400040F480306949086000BF6848006800F4E2
:10055000003000900198401C0190009818B9019853
:10056000B0F5A06FF1D16148006810F4003F02D0EF
:100570000120009001E0002000900098012842D165
:100580005B48006840F01000594908600846006860
:1005900020F0030008600846006840F00200086090
:1005A00052484068514948600846406848600846DB
:1005B000406840F4806048600846406820F47C1041
:1005C00048600846406840F4E81048600846006803
:1005D00040F08070086000BF4448006810F0007F61
:1005E000FAD04248406820F003004049486008467D
:1005F000406840F00200486000BF3C48406800F09E
:100600000C000828F9D10CBD10B5FFF793FF10BD01
:1006100010B53648006840F00100344908600846CB
:10062000406834490840314948600846006832490A
:1006300008402E4908600846006820F480200860C1
:100640000846406820F4FE0048604FF41F008860B0
:10065000FFF7DAFF4FF000602849086010BD10B5C1
:10066000002100200022214B5B6803F00C0121B126
:10067000042906D0082928D107E0214B214C23600A
:1006800027E01F4B1F4C236023E0184B5B6803F4EB
:100690007010164B5B6803F48032022303EB90402A
:1006A00022B9194B4343174C23600DE00F4B5B6895
:1006B00013F4003F04D0144B4343124C236003E077
:1006C0000F4B43430F4C236003E00D4B0D4C236055
:1006D00000BF00BF054B5B68C3F303130B4CE15C29
:1006E000084B1B68CB40074C236010BD0010024034
:1006F000002002400000FFF8FFFFF6FE08ED00E0DA
:1007000000127A000000002000093D0004000020D3
:1007100008B50121042003F09BFC4FF48070ADF874
:10072000000010208DF8030003208DF802006946B8
:100730000E4803F0D7F94FF480710C4803F07DFAAE
:100740000121202003F084FC0420ADF800001020DB
:100750008DF8030003208DF802006946044803F079
:10076000C1F90421024803F068FA08BD00080140FD
:100770000014014008B50121042003F069FC4FF486
:100780002040ADF8000048208DF8030069462B4852
:1007900003F0A8F90120ADF8000028208DF803002F
:1007A0006946264803F09EF908BD10B5012124488A
:1007B00003F067FA2348007858B32348006830B143
:1007C0002248006818B122480068012821D10A2077
:1007D00002F0BAFF00201B4908701B48006828B9C6
:1007E00001211C4803F04DFA012010BD1748006894
:1007F00028B90121174803F044FA0220F5E714480C
:100800000068012813D10121124803F03AFA0320AD
:10081000EBE70D480068012809D10C480068012861
:1008200005D10B48006810B9012006490870012164
:10083000084803F026FA0020D7E70000000801402E
:100840000004300014000020340121423C01214208
:1008500000012142000230004FF48071FE4A5161D4
:1008600049005161FD490860802151611161890091
:100870001161704710B54FF08830F8490C390860A5
:10088000091D08600020F54908608815F2490861D3
:100890004000486140204861F1480088A0F50941C6
:1008A000893902D1022002F06AFF4020EA4908613A
:1008B000EA48001F006884B2481508614FF03330E1
:1008C000E6490C390860091D08604FF6FF70E349DE
:1008D0000860204610BD10B504460B462046FFF7C1
:1008E000BBFF4FF48070DC49086140004861DB4881
:1008F00003608020486108618000086110BD10B568
:1009000004462046FFF7A8FFFFF7B4FF10BD00B56F
:10091000D3480088A0F51341413903D12C20FFF7BB
:100920009BFF02E02220FFF797FF00BD4FF480718C
:10093000C94A116149005161C8490860802151616B
:10094000116189001161704730B5014601F01F0443
:10095000C1F34513CA0AE50205EB43151544A8B2D5
:1009600030BD2DE9F04105460E46F02D02DAB6F510
:10097000A07F02DB0020BDE8F0813146284607F069
:10098000C1FCB7480088A0F51341413903D12E209E
:10099000FFF762FF02E02220FFF75EFF4FF0883092
:1009A000AE490C390860091D08604FF6FF70AB496D
:1009B00008608815A84908614000486140204861E6
:1009C00008614861A6480088A0F50941893902D12B
:1009D000022002F0D4FE40209F4908619F48001F7A
:1009E000006884B29E480088A0F5134141390DD1BA
:1009F00040209949486108619848001F00681FFA23
:100A000080F8E7B24FF6FF7000EA07274FF4007056
:100A1000914908614FF0333090490C390860091D45
:100A200008604FF6FF708D4908608D480088A0F57A
:100A30008A41353911D08A480088A0F58A41313978
:100A40000BD087480088A0F50941893905D0844832
:100A50000088A0F53541053901D120468BE7804853
:100A60000088A0F51341413907D1E012C002B91244
:100A700040EA411040EAE8207DE72046FFF764FFA6
:100A800079E700B576480088A0F51341413903D1D4
:100A90002920FFF7E1FE04E040F273110720FFF781
:100AA0001AFF00BD00B56E480088A0F5134141391A
:100AB00003D12820FFF7D0FE03E000210720FFF735
:100AC0000AFF00BD70B50546002400266448008872
:100AD000A0F5134141397DD1082D1CD2DFE805F086
:100AE0000406090C0F12151800BF14E044F080042E
:100AF00011E044F040040EE044F0C0040BE044F088
:100B0000200408E044F0600405E044F0A00402E0A2
:100B100044F0E00400BF00BF362644F0080421463C
:100B20003046FFF7D8FE14F0200F75D02A20FFF7CB
:100B300093FE4FF4807048490861400048610020EE
:100B40004649086080204449486108618000086186
:100B50004010086140004861002040490860802042
:100B60003D4948610861800008614010086140000B
:100B7000486101203949086080203749486108618F
:100B80008000086140100861400048613F203349FF
:100B900008608020304948610861800008612B208E
:100BA000FFF75AFE4FF480702B49086140004861FE
:100BB00000202A4908608020274948610861800098
:100BC0000861401008614000486100202349086026
:100BD000802000E09AE020494861086180000861B7
:100BE000401008614000486100201C4908608020D6
:100BF000194948610861800008614010086140009F
:100C00004861EF2015490860802013494861086158
:100C100080000861ACE0FFE72A20FFF71DFE4FF4DB
:100C200080700D4908614000486100200B49086050
:100C3000802009494861086180000861401008610E
:100C40004000486100200549086080200249486151
:100C500008618000086105E0001001400C0C0140B3
:100C60001A00002040100861400048610020FE4941
:100C700008608020FD4948610861800008614010DB
:100C8000086140004861EF20F74908608020F7497B
:100C900048610861800008612B20FFF7DDFD4FF4FB
:100CA0008070F2490861400048610020EE49086008
:100CB0008020EE49486108618000086140100861A9
:100CC000400048610020E84908608020E749486109
:100CD00008618000086140100861400048610120FF
:100CE000E14908608020E1494861086180000861AD
:100CF00040100861400048613F20DB4908608020C7
:100D0000DA49486108618000086131E0082D1CD291
:100D1000DFE805F004070A0D0F12151844F030043F
:100D200013E044F0100410E044F020040DE000BF94
:100D30000BE044F0380408E044F0280405E044F0F7
:100D4000180402E044F0080400BF00BFC84800884F
:100D5000A0F50941893904D1112646F24000044327
:100D600002E0032644F4805421463046FFF7B3FDE9
:100D700070BD70B504460D462946204607F0C2FAFC
:100D8000FFF7C5FD4FF48070B84908614000486125
:100D9000B8480088B44908608020B44948610861B7
:100DA0008000086170BD70B504460025002108462A
:100DB00007F0A8FAFFF7ABFD00BF0DE04FF480701D
:100DC000AA49086140004861A74804608020486142
:100DD0000861800008616D1CB5F5963FEED370BDCB
:100DE00008B50121192003F033F90121A24802F0CE
:100DF00048FF4FF4F860ADF8000010208DF80300B4
:100E000003208DF802006946984802F06BFE4FF40B
:100E1000F861964802F011FF4FF6FF70ADF8000040
:100E2000694691480C3802F05DFE4FF6FF718E481E
:100E30000C3802F002FF322002F086FC0121002073
:100E4000FFF749FD322002F07FFC0020FFF757FD3D
:100E5000874908800846008828B108460088A0F520
:100E60007F41FF391BD1D320FFF7F6FCFFF702FDCE
:100E7000FFF700FDFFF7FEFC00F0BF007C49088093
:100E8000084600884FF6FF7101EA00207849088083
:100E9000FFF7F0FC764909880843754908807448D3
:100EA000018876A007F090F871480088A0F51341FA
:100EB00041397DD1CF20FFF7CFFC4FF480706B49D3
:100EC0000861400048610020674908608020674948
:100ED0004861086180000861401008614000486175
:100EE000C120614908608020604948610861800034
:100EF0000861401008614000486130205A4908608C
:100F000080205A494861086180000861ED20FFF7A0
:100F1000A3FC4FF48070554908614000486164208B
:100F2000514908608020514948610861800008618A
:100F3000401008614000486103204B490860802050
:100F40004A4948610861800008614010086140001A
:100F50004861122044490860802044494861086182
:100F600080000861401008614000486181203E49CE
:100F7000086080203D494861086180000861E820E0
:100F8000FFF76AFC4FF480703849086140004861FF
:100F90008520354908608020344948610861800017
:100FA0000861401008614000486110202E4900E0AF
:100FB0008AE3086080202D4948610861800008614B
:100FC00040100861400048617A202749086080206D
:100FD00026494861086180000861CB20FFF73CFC8E
:100FE0004FF48070214908614000486139201E4952
:100FF000086080201D494861086180000861401038
:101000000861400048612C2017490860802017497A
:101010004861086180000861401008614000486133
:101020000020114908608020104948610861800053
:101030000861401008614000486134200A49086096
:1010400080200A49486108618000086140100861F9
:10105000400048610220044908608020034948613B
:1010600008618000086111E00C0C01400010014093
:101070001A0000201600002000023000204C4344DB
:101080002049443A25780D0A00000000F720FFF7B8
:10109000E3FB4FF48070FE49086140004861202066
:1010A000FC4908608020FA494861086180000861B5
:1010B000EA20FFF7D1FB4FF48070F549086140004A
:1010C00048610020F34908608020F14948610861C7
:1010D0008000086140100861400048610020ED492F
:1010E00008608020EA494861086180000861C020EA
:1010F000FFF7B2FB4FF48070E5490861400048619A
:101100001B20E44908608020E149486108618000B3
:101110000861C120FFF7A0FB4FF48070DC49086133
:10112000400048610120DB4908608020D8494861BF
:10113000086180000861C520FFF78EFB4FF48070C6
:10114000D3490861400048613020D24908608020BE
:10115000CF49486108618000086140100861400083
:1011600048613020CB4908608020C9494861086146
:1011700080000861C720FFF76FFB4FF48070C449FF
:10118000086140004861B720C24908608020C0491A
:1011900048610861800008613620FFF75DFB4FF46D
:1011A0008070BB490861400048614820B949086027
:1011B0008020B74948610861800008613A20FFF744
:1011C0004BFB4FF48070B2490861400048615520E4
:1011D000B04908608020AE4948610861800008611C
:1011E000B120FFF739FB4FF48070A9490861400036
:1011F00048610020A74908608020A549486108612E
:101200008000086140100861400048611A20A1492F
:10121000086080209E494861086180000861B6200E
:10122000FFF71AFB4FF4807099490861400048614C
:101230000A2098490860802095494861086180002B
:1012400008614010086140004861A220914908608F
:1012500080208F494861086180000861F220FFF713
:10126000FBFA4FF480708A49086140004861002011
:1012700088490860802086494861086180000861CB
:101280002620FFF7E9FA4FF4807081490861400099
:10129000486101207F49086080207D4948610861DC
:1012A00080000861E020FFF7D7FA4FF4807078499A
:1012B0000861400048610F20764908608020744929
:1012C0004861086180000861401008614000486181
:1012D0002A207049086080206D49486108618000BB
:1012E0000861401008614000486128206949086091
:1012F00080206749486108618000086140100861EA
:1013000040004861082063490860802060494861C6
:1013100008618000086140100861400048610E20AB
:101320005C49086080205A49486108618000086172
:10133000401008614000486108205649086080203C
:10134000534948610861800008614010086140000D
:10135000486154204F49086080204D494861086128
:10136000800008614010086140004861A920494997
:10137000086080204649486108618000086140108B
:10138000086140004861432042490860802040498C
:1013900048610861800008614010086140004861B0
:1013A0000A203C4908608020394948610861800072
:1013B000086140100861400048610F20354908600D
:1013C000802033494861086180000861401008614D
:1013D0004000486100202F49086080202C49486166
:1013E00008618000086140100861400048610020E9
:1013F000284908608020264948610861800008610A
:1014000040100861400048610020224908608020A7
:101410001F49486108618000086140100861400070
:10142000486100201B490860802019494861086113
:1014300080000861E120FFF70FFA4FF48070144933
:10144000086140004861002012490860802010496E
:1014500048610861800008614010086140004861EF
:1014600015200C4908608020094948610861800006
:101470000861401008614000486117200549086074
:10148000802003494861086180000861401003E042
:10149000001001400C0C0140086140004861072029
:1014A000F84908608020F8494861086180000861B7
:1014B00040100861400048611120F2490860802016
:1014C000F1494861086180000861401008614000EE
:1014D00048610620EB4908608020EB4948610861BB
:1014E0008000086140100861400048612B20E549F8
:1014F00008608020E449486108618000086140106C
:101500000861400048615620DE4908608020DE49BD
:10151000486108618000086140100861400048612E
:101520003C20D84908608020D74948610861800084
:10153000086140100861400048610520D1490860F9
:101540008020D1494861086180000861401008612D
:10155000400048611020CB4908608020CA4948619A
:1015600008618000086140100861400048610F2058
:10157000C44908608020C44948610861800008614E
:1015800040100861400048613F20BE49086080204B
:10159000BD49486108618000086140100861400051
:1015A00048613F20B74908608020B7494861086119
:1015B0008000086140100861400048610F20B14977
:1015C00008608020B04948610861800008612B20D4
:1015D000FFF742F94FF48070AB4908614000486161
:1015E0000020A84908608020A74948610861800060
:1015F000086140100861400048610020A14908606E
:101600008020A1494861086180000861401008619C
:101610004000486101209B49086080209A49486148
:1016200008618000086140100861400048613F2067
:1016300094490860802094494861086180000861ED
:101640002A20FFF709F94FF480708F4908614000A4
:10165000486100208B49086080208B4948610861FF
:101660008000086140100861400048610020854901
:10167000086080208449486108618000086140104A
:1016800008614000486100207E49086080207E4952
:1016900048610861800008614010086140004861AD
:1016A000EF20784908608020774948610861800010
:1016B00008611120FFF7D0F8782002F045F82920C2
:1016C000FFF7CAF801F090B870480088A0F5134100
:1016D00025397DD147F6F001E520FFF7FCF84FF4FE
:1016E00080710120FFF7F7F84FF4E0610220FFF767
:1016F000F2F841F230010320FFF7EDF80021042059
:10170000FFF7E9F840F202210820FFF7E4F8002192
:101710000920FFF7E0F800210A20FFF7DCF800219C
:101720000C20FFF7D8F800210D20FFF7D4F8002196
:101730000F20FFF7D0F800211020FFF7CCF8072189
:101740001120FFF7C8F800211220FFF7C4F800218C
:101750001320FFF7C0F800210720FFF7BCF841F283
:1017600090611020FFF7B7F840F227211120FFF712
:10177000B2F89D211220FFF7AEF84FF4C8511320A4
:10178000FFF7A9F825212920FFF7A5F80D212B2027
:10179000FFF7A1F807213020FFF79DF840F2033151
:1017A0003120FFF798F803213220FFF794F840F238
:1017B00006213520FFF78FF808213620FFF78BF838
:1017C00040F206413720FFF786F84FF4417100E000
:1017D0005EE03820FFF77FF807213920FFF77BF81C
:1017E00040F202613C20FFF776F808213D20FFF728
:1017F00072F800215020FFF76EF8EF215120FFF71B
:101800006AF800215220FFF766F840F23F1153209A
:10181000FFF761F84FF427416020FFF75CF80121E2
:101820006120FFF758F800216A20FFF754F80021E3
:101830008020FFF750F800218120FFF74CF80021AD
:101840008220FFF748F800218320FFF744F80021A9
:101850008420FFF740F800218520FFF73CF8102195
:101860009020FFF738F84FF4C0619220FFF733F86B
:1018700040F233110720FFF72EF822210020FFF756
:101880002AF81FE70C0C0140001001401A0000204C
:10189000FE480088A0F5134128397DD11021E720AA
:1018A000FFF719F801210020FFF715F84FF48071B8
:1018B0000120FFF710F84FF4E0610220FFF70BF86A
:1018C00041F230010320FFF706F800210420FFF762
:1018D00002F840F207210820FEF7FDFF0021092051
:1018E000FEF7F9FF00210A20FEF7F5FF01210C2089
:1018F000FEF7F1FF00210D20FEF7EDFF00210F2084
:10190000FEF7E9FF00211020FEF7E5FF0721112077
:10191000FEF7E1FF00211220FEF7DDFF002113207A
:10192000FEF7D9FF322001F00FFF41F29051102055
:10193000FEF7D1FF40F227211120FEF7CCFF322025
:1019400001F002FF9C211220FEF7C5FF322001F0BA
:10195000FBFE4FF4C8511320FEF7BDFF23212920C1
:10196000FEF7B9FF0E212B20FEF7B5FF322001F064
:10197000EBFE00212020FEF7AEFF40F23F112120B8
:10198000FEF7A9FF322001F0DFFE07213020FEF72D
:10199000A2FF40F2077100E087E03120FEF79BFFD5
:1019A00006213220FEF797FF40F204713520FEF742
:1019B00092FF41F604713620FEF78DFF0421372097
:1019C000FEF789FF00213820FEF785FF40F20671FF
:1019D0003920FEF780FF40F201713C20FEF77BFFCB
:1019E0000F213D20FEF777FF322001F0ADFE0021F0
:1019F0005020FEF770FFEF215120FEF76CFF002111
:101A00005220FEF768FF40F23F115320FEF763FFBC
:101A10004FF427416020FEF75EFF01216120FEF7B1
:101A20005AFF00216A20FEF756FF00218020FEF7B2
:101A300052FF00218120FEF74EFF00218220FEF799
:101A40004AFF00218320FEF746FF00218420FEF795
:101A500042FF00218520FEF73EFF10219020FEF777
:101A60003AFF00219220FEF736FF03219320FEF774
:101A700032FF4FF488719520FEF72DFF002197204B
:101A8000FEF729FF00219820FEF725FF40F23311D1
:101A90000720FEF720FF00212020FEF71CFF40F268
:101AA0003F112120FEF717FF0CE678480088A0F5CB
:101AB0001341203904D075480088B0F5134F7DD10B
:101AC00000210846FEF707FF4FF480710120FEF762
:101AD00002FF4FF4E0610220FEF7FDFE41F230010B
:101AE0000320FEF7F8FE00210420FEF7F4FE40F28A
:101AF00002210820FEF7EFFE00210920FEF7EBFE91
:101B000000210A20FEF7E7FE01210C20FEF7E3FE8C
:101B100000210D20FEF7DFFE00210F20FEF7DBFE87
:101B2000322001F011FE40F201110720FEF7D3FE32
:101B3000322001F009FE4FF486511020FEF7CBFE53
:101B400007211120FEF7C7FE4FF488711220FEF71F
:101B5000C2FE4FF430611320FEF7BDFE00212920A4
:101B6000FEF7B9FE44F210012B20FEF7B4FE00216F
:101B70005020FEF7B0FEEF215120FEF7ACFE002111
:101B80005220FEF7A8FE40F23F115320FEF7A3FEBD
:101B90004FF41C516020FEF79EFE01216120FEF7EC
:101BA0009AFE00216A20FEF796FE00218020FEF7B3
:101BB00092FE00218120FEF78EFE00E02EE0002143
:101BC0008220FEF788FE00218320FEF784FE00219C
:101BD0008420FEF780FE00218520FEF77CFE102188
:101BE0009020FEF778FE00219220FEF774FE01217E
:101BF0009320FEF770FE4FF488719520FEF76BFE80
:101C000000219720FEF767FE00219820FEF763FE73
:101C100040F273110720FEF75EFE53E51B48008873
:101C2000A0F5A84108397DD14FF480710120FEF75D
:101C300052FE4FF4E0610220FEF74DFE41F230010A
:101C40000320FEF748FE00210420FEF744FE40F288
:101C500007210820FEF73FFE00210920FEF73BFE8A
:101C600000210A20FEF737FE00210C20FEF733FE8C
:101C700000210D20FEF72FFE00210F20FEF72BFE86
:101C8000142001F061FD41F2B06101E01A00002072
:101C90001020FEF720FE01211120FEF71CFE01217D
:101CA0001720FEF718FE4FF49C711220FEF713FE6A
:101CB0004FF400611320FEF70EFE09212920FEF7E4
:101CC0000AFE09212A20FEF706FE0021A420FEF7C5
:101CD00002FE00215020FEF7FEFDEF215120FEF70D
:101CE000FAFD00215220FEF7F6FD40F23F1153208D
:101CF000FEF7F1FD4FF41C516020FEF7ECFD0121D1
:101D00006120FEF7E8FD00216A20FEF7E4FD0021D6
:101D10008020FEF7E0FD00218120FEF7DCFD0021A0
:101D2000822000E027E0FEF7D6FD00218320FEF7A9
:101D3000D2FD00218420FEF7CEFD00218520FEF794
:101D4000CAFD13219020FEF7C6FD00219220FEF768
:101D5000C2FD03219320FEF7BEFD4FF4887195204C
:101D6000FEF7B9FD40F273110720FEF7B4FD3220F3
:101D700001F0EAFCA6E4FE480088A0F5A851053968
:101D80007ED10720FEF7A7FD322001F0DDFC4FF4E5
:101D90008E711220FEF79FFD0121A420FEF79BFD0E
:101DA0000F210820FEF797FD08210A20FEF793FD7A
:101DB00008210D20FEF78FFD40F207713020FEF75D
:101DC0008AFD07213120FEF786FD40F203613220B3
:101DD000FEF781FD4FF4E0613320FEF77CFD40F219
:101DE00002213420FEF777FD02213520FEF773FD36
:101DF00041F60F713620FEF76EFD40F20771372075
:101E0000FEF769FD00213820FEF765FD002139202D
:101E1000FEF761FD40F207713A20FEF75CFD0021FC
:101E20003B20FEF758FD07213C20FEF754FD002122
:101E30003D20FEF750FD322001F086FC01210720F5
:101E4000FEF749FD01211720FEF745FD322001F084
:101E50007BFC4FF4BD511020FEF73DFD40F21721F1
:101E60001120FEF738FD4FF48F711220FEF733FD7D
:101E70004FF470611320FEF72EFD00212A2000E0B0
:101E800093E0FEF728FD0A212920FEF724FD4FF4F8
:101E90009F711220FEF71FFD00215020FEF71BFD51
:101EA000EF215120FEF717FD00215220FEF713FD10
:101EB00040F23F115320FEF70EFD4FF41C516020FD
:101EC000FEF709FD01216120FEF705FD00216A20D2
:101ED000FEF701FD00218020FEF7FDFC002181209E
:101EE000FEF7F9FC00218220FEF7F5FC002183209B
:101EF000FEF7F1FC00218420FEF7EDFC0021852097
:101F0000FEF7E9FC13219020FEF7E5FC4FF4407149
:101F10009220FEF7E0FC05219320FEF7DCFC002177
:101F20009520FEF7D8FC00219720FEF7D4FC002175
:101F30009820FEF7D0FC4FF480710120FEF7CBFC17
:101F40004FF4E0610220FEF7C6FC41F230010320AD
:101F5000FEF7C1FC00210420FEF7BDFC00210C208F
:101F6000FEF7B9FC00210F20FEF7B5FC0021202070
:101F7000FEF7B1FC00212120FEF7ADFC2121072056
:101F8000FEF7A9FC142001F0DFFB61210720FEF71A
:101F9000A2FC142001F0D8FB40F273110720FEF7D9
:101FA0009AFC142001F0D0FB6BE471480088A0F586
:101FB000354105397DD10846FEF78DFC00210846E4
:101FC000FEF789FC00210846FEF785FC0021084643
:101FD000FEF781FC0121A420FEF77DFC142001F016
:101FE000B3FB4FF41C516020FEF775FC40F2022158
:101FF0000820FEF770FC4FF405713020FEF76BFCF3
:1020000043F215713120FEF766FC40F20461322084
:10201000FEF761FC40F616613320FEF75CFC42F2ED
:1020200011213420FEF757FC4FF4A8513520FEF75C
:1020300052FC48F207513620FEF74DFC41F20741B1
:102040003720FEF748FC41F203413820FEF743FCFD
:1020500020213920FEF73FFC1A219020FEF73BFC9F
:1020600000211020FEF737FC07211120FEF733FC7A
:1020700000211220FEF72FFC00211320FEF72BFC7D
:10208000142001F061FB4FF4E6611020FEF723FC01
:1020900040F237111120FEF71EFC142001F054FB12
:1020A0004FF4DC711220FEF716FC142001F04CFBFB
:1020B00000E086E04FF470611320FEF70CFC8021F5
:1020C0002A20FEF708FC48212920FEF704FC1420F2
:1020D00001F03AFB4FF480710120FEF7FCFB4FF456
:1020E000E0610220FEF7F7FB41F230210320FEF70A
:1020F000F2FB40F202210820FEF7EDFB00210A204E
:10210000FEF7E9FB00210C20FEF7E5FB00210D2086
:10211000FEF7E1FB30210E20FEF7DDFB0021502011
:10212000FEF7D9FBEF215120FEF7D5FB002152200D
:10213000FEF7D1FB40F23F115320FEF7CCFB4FF4EA
:102140001C516020FEF7C7FB01216120FEF7C3FB95
:1021500000216A20FEF7BFFB11219020FEF7BBFB98
:102160004FF4C0619220FEF7B6FB40F2024101E05D
:102170001A0000209320FEF7AEFB02219420FEF708
:10218000AAFB142001F0E0FA01210720FEF7A3FBCF
:10219000142001F0D9FA61210720FEF79CFB40F2E0
:1021A00073110720FEF797FB00212020FEF793FB19
:1021B00000212120FEF78FFB22210020FEF78BFB60
:1021C00012E3FE480088A0F5454105397DD1084657
:1021D000FEF781FB00210846FEF77DFB142001F08D
:1021E000B3FA00210846FEF776FB00210846FEF709
:1021F00072FB00210846FEF76EFB00210846FEF741
:102200006AFB0121A420FEF766FB142001F09CFA72
:102210004FF41C516020FEF75EFB40F606010820DB
:10222000FEF759FB40F203713020FEF754FB012109
:102230003120FEF750FB04213220FEF74CFB4FF417
:1022400081713320FEF747FB4FF440713420FEF7D5
:1022500042FB40F203113520FEF73DFB1F213620E3
:10226000FEF739FB40F203713720FEF734FB012102
:102270003820FEF730FB04213920FEF72CFB152116
:102280009020FEF728FB4FF482611020FEF723FB1D
:1022900040F247211120FEF71EFB4FF4DE711220A1
:1022A000FEF719FB4FF460611320FEF714FB782052
:1022B00001F04AFA4FF480710120FEF70CFB4FF455
:1022C00000710220FEF707FB00E050E041F2300110
:1022D0000320FEF700FB08210A20FEF7FCFA00218C
:1022E0000C20FEF7F8FA20210E20FEF7F4FA002168
:1022F0000F20FEF7F0FA00212020FEF7ECFA002173
:102300002120FEF7E8FA3D212A20FEF7E4FA142006
:1023100001F01AFA2D212920FEF7DDFA00215020C4
:10232000FEF7D9FA4DF2EF015120FEF7D4FA002161
:102330005220FEF7D0FA40F23F115320FEF7CBFABD
:1023400000216120FEF7C7FA00216A20FEF7C3FAD8
:102350004FF440719220FEF7BEFA05219320FEF75C
:10236000BAFA4FF480710720FEF7B5FA3CE29348C1
:102370000088A0F5094189397DD101210020FEF7AF
:10238000AAFA4AF6A4010320FEF7A5FA00210C20C0
:10239000FEF7A1FA40F60C010D20FEF79CFA4FF46F
:1023A0002C510E20FEF797FAB0211E20FEF793FA6B
:1023B00042F63F310120FEF78EFA4FF4C061022051
:1023C000FEF789FA00211020FEF785FA46F2700127
:1023D0001120FEF780FA00210520FEF77CFA00218B
:1023E0000620FEF778FA4EF61C711620FEF773FAF7
:1023F00003211720FEF76FFA40F233210720FEF782
:102400006AFA00210B20FEF766FA00210F20FEF782
:1024100062FA00214120FEF75EFA00214220FEF719
:102420005AFA00214820FEF756FA40F23F1149209F
:10243000FEF751FA00214A20FEF74DFA00214B2009
:10244000FEF749FA4FF46F414420FEF744FA0021A9
:102450004520FEF740FA40F23F114620FEF73BFAD6
:1024600040F207713020FEF736FA4FF40171312047
:10247000FEF731FA00E03DE04FF401713220FEF743
:102480002AFA40F202513320FEF725FA40F20751B2
:102490003420FEF720FA4FF401713520FEF71BFAC5
:1024A0004FF401713620FEF716FA40F20251372040
:1024B000FEF711FA40F202313A20FEF70CFA40F230
:1024C00002313B20FEF707FA00212320FEF703FA32
:1024D00000212420FEF7FFF94FF400412520FEF7EC
:1024E000FAF900214F20FEF7F6F900214E20FEF701
:1024F000F2F979E131480088A0F58A4131397CD17F
:1025000001210020FEF7E7F90A2001F01DF941F250
:1025100028611020FEF7DFF90E211220FEF7DBF90B
:1025200040F639211320FEF7D6F90A2001F00CF904
:1025300040211120FEF7CFF950211520FEF7CBF9ED
:102540000A2001F001F91E211220FEF7C4F90A2029
:1025500001F0FAF84FF4B1511020FEF7BCF942F641
:1025600039211320FEF7B7F90A2001F0EDF84FF4F6
:1025700080710120FEF7AFF94FF440710220FEF7A1
:10258000AAF941F230010320FEF7A5F940F2022139
:102590000820FEF7A0F908210A20FEF79CF9002187
:1025A0003020FEF798F940F202413120FEF793F90E
:1025B0004FF483713220FEF78EF901E01A000020FB
:1025C00040F203513320FEF786F94FF48271342034
:1025D000FEF781F940F201313520FEF77CF940F237
:1025E00007713620FEF777F940F205313720FEF704
:1025F00072F94FF40271382000E040E0FEF76BF909
:1026000040F60B713920FEF766F902214120FEF7F2
:1026100062F94FF41C516020FEF75DF90121612041
:10262000FEF759F94FF404719020FEF754F94FF476
:1026300085719220FEF74FF904219320FEF74BF9A4
:102640004FF48071A020FEF746F901210720FEF724
:1026500042F921210720FEF73EF923210720FEF74A
:102660003AF933210720FEF736F940F233110720FB
:10267000FEF731F90021A020FEF72DF9B4E0FA4869
:102680000088A0F58A413539F8D130211520FEF7B0
:1026900022F910219A20FEF71EF920211120FEF7C1
:1026A0001AF943F228411020FEF715F902211220F1
:1026B000FEF711F941F238011320FEF70CF928203A
:1026C00001F042F812210846FEF705F9282001F032
:1026D0003BF843F220411020FEF7FDF843F23801A9
:1026E0001320FEF7F8F8462001F02EF800213020E4
:1026F000FEF7F1F840F202413120FEF7ECF840F22B
:1027000007313220FEF7E7F84FF441713320FEF72E
:10271000E2F804213420FEF7DEF840F201413520D2
:10272000FEF7D9F840F207713620FEF7D4F840F2F0
:1027300005313720FEF7CFF84FF4C2613820FEF79D
:10274000CAF84FF4C2613920FEF7C5F84FF4807122
:102750000120FEF7C0F84FF440710220FEF7BBF8ED
:1027600041F230010320FEF7B6F840F608010820D8
:10277000FEF7B1F808210A20FEF7ADF84FF41C511E
:102780006020FEF7A8F801216120FEF7A4F84FF4BD
:102790009F719020FEF79FF84FF480719220FEF712
:1027A0009AF84FF480719320FEF795F84FF440515A
:1027B000A020FEF790F81021A320FEF78CF801214D
:1027C0000720FEF788F821210720FEF784F823214F
:1027D0000720FEF780F833210720FEF77CF840F24F
:1027E00033110720FEF777F80020FEF76BF9012080
:1027F0009E4908604FF6FF70FEF7D5FA08BD2DE937
:10280000F05F05460E4617469846DDF828A04FF0C3
:10281000000B0020FEF756F9781B401C1FFA80FBC6
:1028200034461EE02146284605F06CFDFEF76FF8A1
:102830004FF0000911E04FF480708D4908614000AD
:1028400048618C48C0F800A0802048610861800081
:10285000086109F101001FFA80F9D945EBDB601C22
:1028600084B24445DEDD0020FEF72CF9BDE8F09F80
:102870002DE9FF4F85B081468A46002004900390E1
:102880000798A0EB09050898A0EB0A06CDF8089078
:10289000CDF804A0002D01DD012705E00DB90027CA
:1028A00002E04FF0FF376D42002E02DD4FF00108CD
:1028B00006E016B94FF0000802E04FF0FF3876420C
:1028C000B54201DD2C4600E034464FF0000B21E01C
:1028D000019A91B2029A90B2FEF74BFA04982844FA
:1028E00004900398304403900498A04205DD0498B6
:1028F000001B04900298384402900398A04205DD22
:102900000398001B03900198404401900BF10100D3
:102910001FFA80FB601C8345DADD09B0BDE8F08F4B
:102920002DE9F04104460D4616461F462B46324619
:1029300029462046FFF79CFF3B4622462946204673
:10294000FFF796FF3B46324639462046FFF790FF99
:102950003B46324629463046FFF78AFFBDE8F08104
:102960002DE9F04706460F469046002445460320D1
:10297000A0EB480948E03A1B91B2721B90B2FEF7F7
:10298000F8F93A1B91B2721990B2FEF7F2F97A197E
:1029900091B2321B90B2FEF7ECF93A1B91B2721B66
:1029A00090B2FEF7E6F97A1B91B2321B90B2FEF7B5
:1029B000E0F93A1991B2721990B2FEF7DAF97A1B7E
:1029C00091B2321990B2FEF7D4F97A1991B2321954
:1029D00090B2FEF7CEF93A1991B2721B90B2FEF79F
:1029E000C8F9641CB9F1000F03DAA000801D81440E
:1029F00004E0601B80000A3081446D1E7A1991B298
:102A0000321990B2FEF7B5F9AC42B4DDBDE8F087FB
:102A10002DE9F84F0746894616461D46BB4616481F
:102A200000880090E82F02DCB9F59C7F01DDBDE84D
:102A3000F88FA6F12000C6B20A98002848D10024D9
:102A400043E00C2D07D106EB46000C4901EB80005A
:102A500010F804A004E00A4800EB061010F804A0E7
:102A60004FF0000825E000001A000020A8012242D3
:102A7000001001400C0C014016000020AC8B000837
:102A8000209000081AF0010F03D07F4900980880B9
:102A900003E07E4800887C49088049463846FEF7B6
:102AA00068F94FEA6A0A781C87B208F1010000F061
:102AB000FF0805EBD571B8EB610FE3DB5F4609F169
:102AC00001001FFA80F9601CC4B2AC42B9DB2DE0F2
:102AD000002429E00C2D07D106EB46006C4901EBE0
:102AE000800010F804A004E06A4800EB061010F81B
:102AF00004A04FF0000810E01AF0010F07D009EB16
:102B0000040291B207EB080290B2FEF732F94FEAE5
:102B10006A0A08F1010000F0FF0805EBD571B8EB77
:102B2000610FE9DB601CC4B2AC42D3DB56490098AC
:102B3000088000BF7BE710B50246012000E050434B
:102B40000B00A1F10104E1B2F9D110BD2DE9FF4F55
:102B500081B0074691461E460E9D4FF0000A0024A4
:102B600039E0301B401EC1B20A20FFF7E4FFB9FB79
:102B7000F0F00A21B0FBF1F201FB1208BAF1000FEC
:102B800016D1701EA04213DDB8F1000F0ED1002047
:102B9000AB4605EBDB71491001FB0471009088B274
:102BA0002B4620220299FFF733FF12E04FF0010A73
:102BB0000020AB4605EBDB71491001FB047100906E
:102BC00088B208F13001CAB22B460299FFF720FF04
:102BD00000BF601CC4B2B442C3DB05B0BDE8F08FD7
:102BE0002DE9FF4F81B0074690461D46DDE90E6A8C
:102BF00000241EE0281B401EC1B20A20FFF79BFFE5
:102C0000B8FBF0F00A21B0FBF1F201FB1209B34668
:102C100006EBDB71491001FB047188B209F1300148
:102C2000CAB23346CDF800A00299FFF7F1FE601C4E
:102C3000C4B2AC42DEDB05B0BDE8F08FF8B50546A6
:102C40000E4614461BE0E82D03DD002506F11000BA
:102C500086B2B6F59C7F06DD0020054606464FF697
:102C6000FF70FEF7A0F80020009022781023314674
:102C70002846FFF7CDFE05F1080085B2641C2078D8
:102C80000028E0D1F8BD0000160000201800002048
:102C9000AC8B00082090000870B50546002405E0C4
:102CA000601CC4B2C82C01DD002070BD02212F4879
:102CB00001F085FB0028F3D029462C4801F02CFBBD
:102CC000002400BF0121294801F079FB0028F9D038
:102CD000601CC4B2C82C01DD0020E6E7234801F0E7
:102CE0001DFBC0B2E1E708B5012141F2040001F08B
:102CF000AFF9E020ADF8000018208DF803000320A4
:102D00008DF8020069461A4800F0ECFEE0211848F0
:102D100000F093FF0020174908804FF4827048802C
:102D2000002088800220C88001200881400248815C
:102D3000382088810020C881072008820B4801F0D4
:102D400015FA0121094801F0B6FAFF20FFF7A4FFA8
:102D500008BD10B50446074884810146034801F0C8
:102D600005FA0121014801F0A6FA10BD003001402A
:102D700000080140B201002010B504462046FFF7CC
:102D80008BFF10BD10B53820FFF7E3FF10BD10B565
:102D90000020FFF7DEFF10BD08B50121042001F07F
:102DA00057F91C20ADF8000010208DF80300032017
:102DB0008DF802006946FE4800F094FE1C21FC4894
:102DC00000F03BFFFFF78FFF0120FA49086008BDC4
:102DD00010B50120F74908604FF0FF00FFF7CCFF66
:102DE00010BD10B5002400BFFF20FFF7C5FFFF286E
:102DF00001D1002010BD641C6FF07F408442F3D3EA
:102E00000120F7E710B50020EA490860FFF7E9FF65
:102E100008B9002010BDFFF7DBFF0120FAE770B50D
:102E2000054640F6FF7401E0601E84B2FF20FFF704
:102E3000A3FFA84201D0002CF6D10CB9FF2070BD31
:102E40000020FCE770B504460D46FE20FFF7E7FFC3
:102E500008B1012070BD04E0FF20FFF71DFF2070C6
:102E6000641C2800A5F101018DB2F5D1FF20FFF708
:102E700083FFFF20FFF780FF0020EBE770B50646D9
:102E80000D46FFF7AEFF08B1012070BD2846FFF7E1
:102E900073FFFD2D19D0002404E0305DFFF7FCFE28
:102EA000601C84B2B4F5007FF7DBFF20FFF764FFFE
:102EB000FF20FFF761FFFF20FFF75EFF044604F0ED
:102EC0001F00052801D00220DFE70020DDE72DE903
:102ED000F04105460C4617464FF00008FFF778FF13
:102EE000FFF790FF10B1FF20BDE8F08145F04000F2
:102EF000FFF742FF200EFFF73FFFC4F30740FFF745
:102F00003BFFC4F30720FFF737FFE0B2FFF734FFC2
:102F10003846FFF731FF0C2D02D1FF20FFF72CFFC1
:102F20004FF01F0800BFFF20FFF726FF064616F0F0
:102F3000800F06D05FEA0800A8F1010101F0FF0848
:102F4000F1D13046D0E770B50546012200210A20B4
:102F5000FFF7BDFF044624B910212846FFF772FF92
:102F60000446FFF735FF0CB1012070BD0020FCE7DF
:102F700070B50546012200210920FFF7A8FF04468D
:102F800024B910212846FFF75DFF0446FFF720FF14
:102F90000CB1012070BD0020FCE77FB56846FFF74B
:102FA000E7FF10B1002004B070BD9DF8000000F0F4
:102FB000C000402809D19DF809009DF8081000EBD9
:102FC0000120401C84B2A50220E09DF8050000F01D
:102FD0000F009DF80A1000EBD1109DF8091001F0C8
:102FE000030100EB4100861C9DF8080080119DF84C
:102FF000071000EB81009DF8061001F0030100EBC3
:103000008120441CA6F1090004FA00F52846CAE70D
:1030100070B5002401E0601C84B2B4F5706FFADB77
:10302000002404E0FF20FFF737FE601C84B20A2C66
:10303000F8DB002500BF952200210846FFF747FF77
:103040000446681CC5B2012C01D0C82DF3DBC82D85
:1030500001D1012070BD0020FCE7F8B5FFF79CFE10
:10306000FFF790FE002504E0FF20FFF785FE681CB7
:1030700085B20A2DF8DB142600BF952200210846F0
:10308000FFF725FF0446012C04D03000A6F1010112
:103090008EB2F2D1002048490870012C4AD1872213
:1030A0004FF4D5710820FFF712FF012847D1002502
:1030B00006E0FF20FFF760FE0DF80500681C85B2F2
:1030C000042DF6DB9DF802000128E7D19DF80300EE
:1030D000AA287CD14FF6FE7600BF012200213720BE
:1030E000FFF7F5FE012291072920FFF7F0FE0446C5
:1030F00024B13000A6F101018EB2EED1002E66D0CF
:10310000012200213A20FFF7E2FE00285FD10025CE
:1031100006E0FF20FFF730FE0DF80500681C85B2C1
:10312000042DF6DB9DF8000010F0400F03D00620C0
:10313000214908704BE004201F49087047E0012234
:1031400000213720FFF7C3FE012200212920FFF7CD
:10315000BEFE0446012C17DC0220174908704FF60A
:10316000FE7600BF012200213720FFF7B0FE0122CA
:1031700000212920FFF7ABFE0446BCB13000A6F1C8
:1031800001018EB2EED111E001200B4908704FF61B
:10319000FE7600BF012200211046FFF798FE04468C
:1031A00024B13000A6F101018EB2F3D166B105E081
:1031B000000801408C0121421C0000200122510224
:1031C0001020FFF784FE10B1002047490870FFF778
:1031D000FFFDFFF7DCFD4448007808B10020F8BD92
:1031E0000CB12046FBE7AA20F9E72DE9F04106469D
:1031F0000F4615463C480078062800D07F02012D76
:103200000CD1012239461120FFF761FE0446FCB9BA
:1032100069023046FFF716FE044619E001223946DE
:103220001220FFF754FE044600BF4FF400713046F1
:10323000FFF708FE044606F50076681EC0B20500DA
:1032400001D0002CF1D0012200210C20FFF73FFE1D
:10325000FFF7BEFD2046BDE8F0812DE9F0410646AE
:103260000F46154620480078062800D07F02012D21
:103270000CD1012239461820FFF729FE04466CBB09
:10328000FE213046FFF7FAFD044627E01648007895
:10329000012809D0012200213720FFF718FE012262
:1032A00029461720FFF713FE012239461920FFF7A0
:1032B0000EFE044694B900BFFC213046FFF7DEFD48
:1032C000044606F50076681EC0B2050001D0002C49
:1032D000F2D0FD210020FFF7D1FD0446FFF778FD75
:1032E0002046BDE8F08100001C00002008B51C202D
:1032F000ADF8000010208DF803006946C64800F0C4
:10330000F1FB1C21C44800F098FCFFF7ECFC08BD61
:1033100010B500240020C14908604FF00500FFF7F8
:10332000BBFCFF20FFF7B8FC04460120BC49C1F8F4
:103330008801204610BD10B504460020B74908603A
:103340004FF00100FFF7A8FC2046FFF7A5FC012085
:10335000B349C1F8880110BD10B50020AF4908601D
:103360004FF00600FFF798FC0120AD49C1F8880135
:1033700010BD10B50020A94908604FF00400FFF708
:103380008BFC0120A649C1F8880110BD10B50024AE
:103390000020A24908604FF09000FFF77DFC00205C
:1033A000FFF77AFC0020FFF777FC0020FFF774FCA2
:1033B000FF20FFF771FC44EA0024FF20FFF76CFCBC
:1033C000044301209649C1F88801204610BD2DE92B
:1033D000F04106460C4617460020904908604FF021
:1033E0000300FFF759FCC4F30740FFF755FCC4F393
:1033F0000720FFF751FCE0B2FFF74EFC002505E087
:10340000FF20FFF749FC7055681C85B2BD42F7DB11
:10341000012082490860BDE8F08110B500BFFFF7C8
:1034200077FF10F0010FFAD110BD2DE9F0410646EB
:103430000C461746FFF790FF0020784908604FF0D0
:103440000200FFF729FCC4F30740FFF725FCC4F393
:103450000720FFF721FCE0B2FFF71EFC002504E087
:10346000705DFFF719FC681C85B2BD42F8DB0120D6
:103470006A490860FFF7D1FFBDE8F0812DE9F0410E
:1034800007460E461446F0B2C0F58075AC4200DC2B
:10349000254612E02A4631463846FFF7C6FFAC42C1
:1034A00000D10BE02F442E44601B84B2B4F5807F22
:1034B00002DD4FF4807500E02546EBE700BFBDE874
:1034C000F08110B504462403FFF746FFFFF7A5FF80
:1034D0000020524908604FF02000FFF7DDFBC4F3E5
:1034E0000740FFF7D9FBC4F30720FFF7D5FBE0B295
:1034F000FFF7D2FB01204A49C1F88801FFF78DFF91
:1035000010BD2DE9F04781460F4616464FEA1738A1
:10351000C7F30B0ACAF58054A64200DC344644E0E7
:103520004FEA08314FF480523E48FFF750FF002524
:1035300008E00AEB05003B49085CFF2800D003E0E7
:10354000681C85B2A542F4DB00BFA54216DA4046EE
:10355000FFF7B7FF002507E019F8050005EB0A01A2
:10356000304A5054681C85B2A542F5DB4FEA083159
:103570004FF480522B48FFF781FF04E02246394682
:103580004846FFF77BFFA64200D10FE008F1010893
:103590004FF0000AA1442744301B86B2B6F5805F85
:1035A00002DD4FF4805400E03446B9E700BFBDE8C7
:1035B000F08710B5FFF7D0FEFFF72FFF0020174967
:1035C00008604FF0C700FFF767FB01201449C1F8FE
:1035D0008801FFF722FF10BD10B500200F490860D9
:1035E0004FF0B900FFF758FB01200D49C1F88801E1
:1035F000032000F0C4F810BD10B500200749086092
:103600004FF0AB00FFF748FB01200549C1F88801E6
:10361000032000F0B4F810BD0008014088012142E9
:1036200000002142C401002008B50121102000F053
:103630000FFD1020ADF8000003208DF802002820B7
:103640008DF803006946324800F04CFA2020ADF8AE
:10365000000003208DF8020010208DF80300694659
:103660002B4800F03FFA08BD70B5002420212848FF
:1036700000F0E5FA142000F082F802E0142000F0D7
:103680007EF81021224800F0BEFA0128F6D000256D
:103690001AE020211E4800F0D0FA142000F06FF844
:1036A000640020211A4800F0CAFA142000F067F8DC
:1036B0001021174800F0A7FA012800D1641C14203B
:1036C00000F05DF8681CC5B2182DE2DB202110481F
:1036D00000F0B3FA142000F052F884F40004202122
:1036E0000B4800F0ACFA142000F049F8204670BDF9
:1036F00070B504460025002604E0FFF7B5FF054439
:10370000701CC6B2A642F8DB95FBF4F070BD000059
:103710000010014010B504466FF0040000F064F999
:10372000E11704EB5171C1F3C701224A1170104631
:10373000007800EB4001C1EBC0104FF6FF7101EAC9
:10374000C0001D49088010BD01461B4A12884A432B
:103750004FF0E0235A6100229A6101221A6100BFF2
:103760004FF0E022106910F0010F02D010F4803FFA
:10377000F6D000224FF0E0231A619A6170470146AB
:103780000C4A12784A434FF0E0235A6100229A61B2
:1037900001221A6100BF4FF0E022106910F0010F02
:1037A00002D010F4803FF6D000224FF0E0231A61DF
:1037B0009A6170471E0000202000002010B54FF4D1
:1037C000A06000F0C1F810BD014600BF704700BF07
:1037D000494A128812F0400FFAD0C2B2464B1B1D64
:1037E0001A80704710B586B00446012144F20500E6
:1037F00000F02EFC4FF40070ADF8140003208DF89B
:10380000160018208DF8170005A93C4800F06AF949
:103810004FF48060ADF8140004208DF8170005A95E
:10382000364800F05FF925208DF8000003208DF860
:1038300001008DF8020001208DF80300684600F0B9
:1038400088F801940020ADF80800ADF80A00ADF842
:103850000C00ADF810000C20ADF80E0001A92648B0
:1038600000F027FE012240F22551234800F0B9FE66
:103870000121214800F0A9FE06B010BD10B540F2AC
:1038800025511D4800F092FF10B31B4800F00EFFB9
:10389000C4B21B48007810F0800F2BD11848007874
:1038A00010F0400F0CD00A2C03D0002014490870EF
:1038B00020E01348007840F080001149087019E0BA
:1038C0000D2C06D10E48007840F040000C490870DD
:1038D00010E00B48007800F03F000A490C540848FB
:1038E0000078401C06490870084600783F2801DD32
:1038F0000020087010BD00000038014000080140A1
:1039000024000020C41100200948804709480047CE
:10391000FEE7FEE7FEE7FEE7FEE7FEE7FEE7FEE77F
:10392000FEE7FEE704480549054A064B70470000DC
:1039300011060008ED000008901A002090200020D9
:10394000901C0020901C002031490143314A116035
:10395000704770B5002100230F22C4780CB32D4CA2
:10396000246804F4E064C4F5E064210AC1F10403AE
:10397000CA40447804FA03F18478144021430901D1
:10398000254C0678A155047804F01F050124AC40AD
:1039900005786D114FF0E02606EB8505C5F800416E
:1039A00009E0047804F01F050124AC401B4D0678A3
:1039B000761145F8264070BD194A0A400243154B5E
:1039C0001B1F1A60704739B1124A121D1268024358
:1039D000104B1B1D1A6006E00E4A121D126882432E
:1039E0000C4B1B1D1A607047042808D14FF0E021D2
:1039F000096941F004014FF0E022116107E04FF046
:103A0000E021096921F004014FF0E02211617047C3
:103A10000000FA050CED00E000E400E080E100E0C9
:103A200080FFFF1F10B50446CA48844208D1012117
:103A3000042000F027FB0021042000F023FB46E0D7
:103A4000C548844208D10121082000F01BFB002159
:103A5000082000F017FB3AE0C048844208D1012159
:103A6000102000F00FFB0021102000F00BFB2EE0D7
:103A7000BB48844208D10121202000F003FB002133
:103A8000202000F0FFFA22E0B648844208D101214C
:103A9000402000F0F7FA0021402000F0F3FA16E091
:103AA000B148844208D10121802000F0EBFA0021C6
:103AB000802000F0E7FA0AE0AC48844207D10121F7
:103AC000801500F0DFFA0021A01500F0DBFA10BD30
:103AD00010B50121084600F0D5FA0021012000F0C0
:103AE000D1FA10BD2DE9F041024600250026002044
:103AF00000230024002791F803C00CF00F0591F873
:103B000003C01CF0100F03D091F802C04CEA050569
:103B100091F800C0BCF1000F31D0146800202BE0F8
:103B20004FF0010C0CFA00F3B1F800C00CEA0306E8
:103B30009E4220D183004FF00F0C0CFA03F7BC43D8
:103B400005FA03FC4CEA040491F803C0BCF1280F09
:103B500006D14FF0010C0CFA00FCC2F814C00AE0C8
:103B600091F803C0BCF1480F05D14FF0010C0CFADD
:103B700000FCC2F810C0401C0828D1D31460B1F872
:103B800000C0BCF1FF0F34DD546800202EE000F1CE
:103B9000080C4FF0010808FA0CF3B1F800C00CEA69
:103BA00003069E4221D183004FF00F0C0CFA03F75D
:103BB000BC4305FA03FC4CEA040491F803C0BCF1D1
:103BC000280F05D100F1080C08FA0CF8C2F814808F
:103BD00091F803C0BCF1480F07D100F1080C4FF079
:103BE000010808FA0CF8C2F81080401C0828CED34F
:103BF0005460BDE8F0814FF6FF71018002218170B1
:103C00000421C17070470246002093680B4201D026
:103C1000012000E0002070470146886880B27047AC
:103C200002460020D3680B4201D0012000E00020B2
:103C300070470146C86880B27047016170474161B2
:103C400070470AB1016100E041617047C16070478F
:103C50004FF480320A4382618161826182698269A4
:103C6000704702460020424B18684FF68073184098
:103C700040EA021008433E4B186070473D49C86156
:103C80007047F0B50A46002300240021002500F00B
:103C90000046B6F1004F02D1354EF16901E0344ED5
:103CA0007168C0F3034583B200F44016B6F5401FB7
:103CB00008D121F070612E4E766826F070662C4F88
:103CC0007E6012E000F48016B6F5801F06D1032650
:103CD00006FA05F4A14341F0706106E0460D360195
:103CE00003FA06F6B14341F0706122B1460D360188
:103CF00003FA06F6314300F00046B6F1004F02D158
:103D00001B4EF16101E01A4E7160F0BD30B500222A
:103D10008B071C0F0F2303FA04F2154B08338C108A
:103D200053F824309343124C08348D1044F8253056
:103D300023468C1053F824308C07240F00FA04F427
:103D400023430B4C08348D1044F8253030BD0A490C
:103D50000860704700080140000C0140001001405D
:103D60000014014000180140001C014000200140E7
:103D70000000014000002042DC002042DD480068D5
:103D800040F00100DB49086008464068DA49084015
:103D9000D849486008460068D8490840D5490860B5
:103DA0000846006820F4802008600846406820F437
:103DB000FE0048604FF41F0088607047CD490968D5
:103DC00021F48031CB4A11601146096821F4802129
:103DD0001160B0F5803F03D0B0F5802F0ED106E022
:103DE000C449096841F48031C24A116007E0C14901
:103DF000096841F4A021BF4A116000E000BF00BF84
:103E0000704710B501460022002300204A11012A04
:103E100002D1B84C236806E0022A02D1B54C236ACD
:103E200001E0B44C636A01F01F02012494401C427B
:103E300001D0012000E0002010BD38B50020009026
:103E40000024002500BF3120FFF7DBFF0546009866
:103E5000401C00900098B0F5A06F01D0002DF2D06A
:103E60003120FFF7CEFF08B1012400E000242046F6
:103E700038BD014600209F4A106820F0F80040EA53
:103E8000C100106070479E490860704702460020DC
:103E9000984B586820F47C1042EA01031843954B74
:103EA0005860704796490866704701460020914A5D
:103EB000506820F003000843506070478D48406808
:103EC00000F00C007047014600208A4A506820F03C
:103ED000F00008435060704701460020854A506852
:103EE00020F4E06008435060704701460020814A9A
:103EF000506820F4605040EAC1005060704729B11A
:103F00007C4A527A02437B4B5A7204E0794A527AD5
:103F10008243784B5A7270477A490860704701466D
:103F20000020744A506820F44040084350607047B5
:103F30000021754A11706F4A82F82010012802D0C2
:103F4000042808D103E001216F4A117004E0052123
:103F50006D4A117000E000BF00BF70476B490860F8
:103F600070476449096A0143624A116270476749B0
:103F700044390860704730B5002100220024002336
:103F80005C4D6D6805F00C0121B1042905D00829AC
:103F900023D105E05E4D056022E05D4D05601FE028
:103FA000544D6D6805F47012524D6D6805F48034FF
:103FB000022505EB92421CB9564D554305600BE0B6
:103FC0004C4D6D6815F4003F03D0524D55430560CC
:103FD00002E04F4D5543056002E04D4D056000BFC6
:103FE00000BF444D6D6805F0F00109094A4D6B5C56
:103FF0000568DD4045603F4D6D6805F4E061090AE4
:10400000454D6B5C4568DD4085603A4D6D6805F453
:104010006051C90A404D6B5C4568DD40C560354D57
:104020006D6805F44041890B3C4D6B5CC568B5FB80
:10403000F3F5056130BD29B12E4A526902432D4B7B
:104040005A6104E02B4A526982432A4B5A617047F5
:1040500029B1284A92690243264B9A6104E0254A15
:1040600092698243234B9A61704729B1214AD269F0
:104070000243204BDA6104E01E4AD26982431D4BA1
:10408000DA61704729B11B4AD2680243194BDA60E2
:1040900004E0184AD2688243164BDA60704729B1AF
:1040A000144A12690243134B1A6104E0114A12695F
:1040B0008243104B1A6170471449403908607047B9
:1040C0000F49C86470470B49C87170470948406A76
:1040D00040F0807007494862704701460020054A59
:1040E00092680A4201D0012000E000207047014997
:1040F00088727047001002400000FFF8FFFFF6FED4
:1041000000004242D8004242201002408004424255
:1041100000127A0000093D002C0000203C00002025
:1041200010B50446BE48844208D101218014FFF72F
:10413000A9FF0021A014FFF7A5FF16E0B9488442AB
:1041400008D101210014FFF7AAFF00212014FFF776
:10415000A6FF0AE0B448844207D10121C013FFF74B
:104160009EFF0021E013FFF79AFF10BD10B500225B
:10417000028802F441520B884C8823438C882343E5
:10418000CC8823430C8923434C8923438C892343C4
:10419000CC8923431A430280838B4FF2FF74234060
:1041A00083830B8A038210BD2DE9F04F85B005464D
:1041B0000C464FF0000902274FF000084FF0010BAA
:1041C0000026B246A88B4FF240010840A883022087
:1041D0002884B5F81C90A068022801D100BF38E0FF
:1041E000A08810B94FF0010B01E04FF0020B8D4891
:1041F000854200D100E000BF6846FFF7BCFEDDF855
:1042000000A0E088B0F5007F0AD14FEA1A2000EB49
:1042100080004000A168B0FBF1F0401D86B20BE0C9
:104220004FEA4B10BAFBF0F000EB80004000A168B1
:10423000B0FBF1F0401D86B20A20B6FBF0F606F0A6
:104240000108A6EB0800C0F34F074FF6FF7000EA25
:104250000828022F01DBFF2F02DD02274FF00008A4
:10426000E08840EA080038432884A088A1890843F0
:10427000618808432188084340F4006040EA090946
:10428000A5F81C9005B0BDE8F08F002101804180A9
:104290008180C180018141818181C18107210182A9
:1042A00070470021018041808180C18002218160AE
:1042B00000218181704721B1028842F040020280D2
:1042C00004E002884FF6BF731A400280704721B1A4
:1042D000828B42F48062828304E0828B4FF6FF334C
:1042E0001A408283704730B5002400230C11012549
:1042F000A540ABB21AB185881D43858002E0858850
:104300009D43858030BD1AB183880B43838002E0D2
:1043100083888B43838070478181704701468889F9
:104320007047A1F57E42FF3A04D0028842F48072C1
:10433000028004E002884FF6FF631A400280704753
:1043400021B1828842F00402828004E082884FF624
:10435000FB731A408280704702884FF2FF731A4045
:10436000028002880A4302807047018841F480512C
:104370000180704721B1028842F40052028004E0BB
:1043800002884DF6FF731A400280704702460020F3
:10439000012901D0108B00E0908A70470146088AFD
:1043A0007047B1F5804F04D1028842F48042028008
:1043B00004E002884BF6FF731A4002807047024601
:1043C000002013890B4201D0012000E0002070473B
:1043D000CA4302817047F0B5024600200024002342
:1043E000002501F00F070126BE40B4B20B110126D3
:1043F0009E40B3B2968806EA03051689264202D08B
:104400000DB1012000E00020F0BD10B5002201F048
:104410000F040123A3409AB2D343038110BD0000CF
:104420000030014000380040003C004010B5044618
:10443000FB48844209D101218803FFF723FE0021B4
:104440004FF48040FFF71EFE32E0F648844209D167
:1044500001214804FFF723FE00214FF40030FFF74D
:104460001EFE25E0F048844209D101218804FFF7AF
:1044700016FE00214FF48020FFF711FE18E0EB48F4
:10448000844209D10121C804FFF709FE00214FF43D
:104490000020FFF704FE0BE0E548844208D101212B
:1044A0000805FFF7FCFD00214FF48010FFF7F7FD32
:1044B00010BD2DE9F04786B005460E460024A24601
:1044C00000BFA1460027B08900B100BF2F462C8A4B
:1044D0004CF6FF700440F08804432C82AC894EF601
:1044E000F3100440B08831890843718908430443BC
:1044F000AC81AC8A4FF6FF400440B0890443AC82E3
:1045000001A8FFF738FDC648874202D1DDF810A0A8
:1045100001E0DDF80CA0A88910F4004F08D00AEBE8
:10452000CA0000EB0A1031684900B0FBF1F807E05F
:104530000AEBCA0000EB0A1031688900B0FBF1F801
:104540006420B8FBF0F004012009642101FB10890C
:10455000A88910F4004F08D0322000EBC900B0FB4E
:10456000F1F000F00700044308E0322000EB0910EE
:104570006421B0FBF1F000F00F0004432C8106B081
:10458000BDE8F0874FF41651016000218180C180A1
:1045900001810C21418100218181704710B50246C3
:1045A0000020108A4FF2FF0318400B884C882343E9
:1045B0008C882343CC8823431843108210BD0021EC
:1045C000018041808180C180704721B1828942F49D
:1045D0000052828104E082894DF6FF731A40828185
:1045E0007047F0B503460024002600250020A1F501
:1045F00010676A3F00D100BF1846C1F3421401F0B2
:104600001F06012707FA06F5012C01D10C3004E042
:10461000022C01D1103000E014301AB107682F438A
:10462000076002E00768AF430760F0BD1AB1838AF4
:104630000B43838202E0838A8B4383827047028A22
:104640004FF6F0731A400282028A0A4302827047D0
:1046500082894FF2FF731A40828182890A438281E4
:10466000704721B1828942F00202828104E082898E
:104670004FF6FD731A4082817047028A4FF6DF734E
:104680001A400282028A0A430282704721B1028ADA
:1046900042F48042028204E0028A4BF6FF731A4021
:1046A00002827047C1F30802828070470146888801
:1046B000C0F308007047818941F001018181704792
:1046C000028BD2B20283028B42EA0122028370473C
:1046D000028B02F47F420283028B0A4302837047FB
:1046E00021B1828A42F02002828204E0828A4FF65F
:1046F000DF731A408282704721B1828A42F0100231
:10470000828204E0828A4FF6EF731A4082827047F9
:1047100021B1828A42F00802828204E0828A4FF646
:10472000F7731A408282704721B1828942F40042B5
:10473000828103E08289C2F30E028281704721B137
:10474000828A42F40062828204E0828A4FF2FF731E
:104750001A4082827047828A4FF6FB731A40828227
:10476000828A0A438282704721B1828A42F0020221
:10477000828204E0828A4FF6FD731A40828270477B
:1047800002460020B1F5007F00D100BF13880B4224
:1047900001D0012000E00020704701F40072B2F562
:1047A000007F00D100BFCA430280704770B5024647
:1047B0000024002300250020A1F510666A3E00D1E8
:1047C00000BFC1F3421501F01F03012606FA03F3EF
:1047D000012D02D19689334006E0022D02D1168ABE
:1047E000334001E0968A33400C12012606FA04F4A5
:1047F0001688344013B10CB1012000E0002070BDD8
:1048000010B500220023A1F510646A3C00D100BF5E
:104810000A1201249440A3B2DC43048010BD0000BE
:10482000003801400044004000480040004C004077
:104830000050004070B503460C4603E014F8015BDD
:1048400003F8015B1500A2F10102F7D170BD30B58C
:10485000034601E003F8011B1400A2F10102F9D1A3
:1048600030BDF0B503461C460D46002000BF1600C3
:10487000A2F1010207D014F8017B15F801CBA7EBD8
:104880000C063000F3D0F0BD024600E0521C107858
:1048900010B110788842F9D1107870472DE9F041B5
:1048A00004460D46266BAE422FD0207908B36078BF
:1048B0000123324604F1340103F020F810B1012045
:1048C000BDE8F08100202071D4E908100844B0420E
:1048D0000FD9E7780AE0206A06446078012332465F
:1048E00004F1340103F00AF8781EC7B2012FF2DC9C
:1048F00000BF55B1607801232A4604F1340102F06B
:10490000CAFF08B10120DBE725630020D8E770B5B6
:10491000044600212046FFF7C1FF0546002D59D16E
:10492000207803284FD1607900284CD000202063E4
:104930004FF40072002104F13400FFF788FF552185
:1049400084F83212AA2184F83312522084F83400F9
:104950005221352001556121362001554121372052
:104960000155722184F8181284F81912412184F833
:104970001A12612184F81B12217C84F81C12208AEF
:10498000010A84F81D122069010C84F81E122069A6
:10499000010E84F81F12217B84F82012A089010ADD
:1049A00084F82112E068010C84F82212E068010EFC
:1049B00084F823126078012304F13401626902F063
:1049C0009DFF0020607160780022114602F0C9FF4F
:1049D00000B10125284670BD0246891ED069801E9F
:1049E000884201D8002070479378D06A01FB030009
:1049F000F9E72DE9F04105460C46022C02D3E8699F
:104A0000A04202D80120BDE8F0812878012804D016
:104A100002282CD003285AD13DE0274607EB570740
:104A2000686A00EB57212846FFF738FF00B14EE0D7
:104A3000C7F3080105F1340010F801807F1C686A93
:104A400000EB57212846FFF729FF00B13FE0C7F3ED
:104A5000080105F13400405C48EA002814F0010F19
:104A600002D04FEA1810CEE7C8F30B00CBE7686A14
:104A700000EB14212846FFF711FF00B127E040F2B8
:104A8000FF1000EA440105F134000E183078717807
:104A900040EA0120B7E7686A00EBD4112846FFF727
:104AA000FDFE00B113E040F2FF1000EA840105F1C1
:104AB00034000E18F0780006B17840EA01407178B1
:104AC00040EA01203178084320F070409BE700BFA6
:104AD0004FF0FF3097E72DE9F04705460E461746A1
:104AE000022E02D3E869B04202D84FF002088CE0EF
:104AF0002878012804D0022843D003287FD156E02B
:104B0000B14609EB5909686A00EB59212846FFF7BD
:104B1000C5FE8046B8F1000F00D073E0C9F308016C
:104B200005F134000C1816F0010F04D0F9B220780A
:104B300061F31F1000E03846207009F101090120DF
:104B40002871686A00EB59212846FFF7A7FE8046C6
:104B5000B8F1000F00D055E0C9F3080105F13400A9
:104B60000C1816F0010F02D0C7F3071007E02078E9
:104B700000F0F000C7F3072101F00F010843207097
:104B800040E0686A00EB16212846FFF787FE804662
:104B9000B8F1000F00D035E040F2FF1000EA460106
:104BA00005F134000C182770380A60702AE0686A32
:104BB00000EBD6112846FFF771FE8046B8F1000FD2
:104BC00000D01FE040F2FF1000EA860105F134003A
:104BD0000C18E0780006A17840EA0140617840EACC
:104BE00001202178084300F0704007432770380AFD
:104BF0006070380CA070380EE07003E0FFE74FF0F3
:104C0000020800BF00BF012028714046BDE8F087C0
:104C10002DE9F04104460E46022E02D3E069B0426F
:104C200001D8022725E000271FE031462046FFF784
:104C3000E0FE054605B91BE0012D01D1022717E072
:104C4000681C01D1012713E0002231462046FFF7FE
:104C500042FF074607B10BE02069401C04D02069E1
:104C6000401C2061012060712E46E069B042DCD812
:104C700000BF3846BDE8F0812DE9F047044689467B
:104C8000B9F1000F06D1E76817B1E069B84211D851
:104C900001270FE049462046FFF7ABFE0646022EED
:104CA00002D20120BDE8F087E069B04201D9304668
:104CB000F8E74F463D4600BF6D1CE069A84204D8A6
:104CC0000225BD4201D90020ECE729462046FFF726
:104CD00090FE064606B909E0701C01D0012E01D1F4
:104CE0003046DFE7BD42E7D10020DBE700BF6FF0D1
:104CF000704229462046FFF7EEFE8046B8F1000FCD
:104D000008D1B9F1000F05D02A4649462046FFF7E1
:104D1000E2FE8046B8F1000F09D1E5602069401C31
:104D20000DD02069401E20610120607107E0B8F1BC
:104D3000010F02D14FF0FF3000E001200546284668
:104D4000B0E770B503460D46586A021D680A1E6832
:104D5000B678B0FBF6F400BF02CA09B9002070BDF6
:104D60008C4200D202E0641A121DF5E700BF106801
:104D70002044F4E72DE9F04104460E46E680A5689C
:104D8000012D03D02068C069A84202D80220BDE8E6
:104D9000F0812DB920680078032801D12068856A48
:104DA00065B9E56020680089B04201DC0220EEE7C9
:104DB0002068806A00EB1610206120E0206880786F
:104DC000070112E029462068FFF713FE0546681C1C
:104DD00001D10120DBE7022D03D32068C069A8427E
:104DE00001D80220D3E7F01B86B2BE42EADAE560C2
:104DF00029462068FFF7F0FD00EB161020612068BF
:104E0000343006F00F0100EB411060610020BEE776
:104E10002DE9F04104468846E088401C86B20EB178
:104E2000206910B90420BDE8F08116F00F0F6ED193
:104E30002069401C2061E06828B920680089B042E0
:104E400065DC0420EFE720688078401E10EA161F1A
:104E50005DD1E1682068FFF7CCFD0546012D01D842
:104E60000220E0E7681C01D10120DCE72068C0696E
:104E7000A84246D8B8F1000F01D10420D3E7E16879
:104E80002068FFF7F9FE05460DB90720CBE7012D95
:104E900001D10220C7E7681C01D10120C3E700212E
:104EA0002068FFF7FBFC08B10120BCE7216801F195
:104EB00034004FF400720021FFF7C9FC2946206836
:104EC000FFF78AFD21680863002710E001202168B0
:104ED000087100212068FFF7E1FC08B10120A2E77A
:104EE0002068006B401C21680863781CC7B22068EA
:104EF0008078B842EADC2068006BC01B2168086338
:104F000000BFE56029462068FFF766FD2061E68066
:104F10002068343006F00F0100EB41106061002082
:104F200081E72DE9F04705460C46207820F0400047
:104F3000401E00EB800101EBC00600274FF0010886
:104F400000BFFE48C05D205CFC49C95D2144497832
:104F500040EA0129B8F1000F10D0484602F098FD50
:104F60008046FF2E07D23146761C35F8110002F03C
:104F70008FFD404508D00020BDE8F087A9F57F40AF
:104F8000FF3801D00020F7E7781C07460D28D8D35A
:104F9000207810F0400F07D0B8F1000F04D035F89A
:104FA000160008B10020E7E70120E5E7F0B5034669
:104FB000087800F03F00401E00EB800707EBC002BE
:104FC0000025012600BFDD48405D085CDB4F7F5DAA
:104FD0000F447F7840EA07244EB1FF2A01D3002016
:104FE000F0BD26461046521C23F8104005E0A4F5FB
:104FF0007F40FF3801D00020F2E7681C05460D28ED
:10500000E1D3087810F0400F06D0FF2A01D300202A
:10501000E6E7002023F812000120E1E7F0B504469E
:105020001D464D730F27CF7200270F738F76BC4636
:1050300081F81BC0571E07EB870C0CEBC706002737
:1050400038463B4600BFA0F57F47FF3F03D03746B9
:10505000761C34F81700DFF8E4C21CF803C001F82E
:105060000C000712DFF8D4C21CF803C08C448CF883
:10507000017008B94FF6FF705F1C3B460D2FE2D35D
:10508000A0F57F47FF3F02D034F816700FB942F009
:1050900040020A70F0BD2DE9FC4707468A4690465B
:1050A0001C460B2251463846FFF7C4FB052C0BDD8E
:1050B00000BF601000EBC43138F8022B881884B2AE
:1050C000B8F800000028F4D1072600BF2046E117F9
:1050D00004EB11710911A4EB0111303101F0FF094A
:1050E000B9F1390F03DD09F1070000F0FF0930467F
:1050F000761E0DF800902046E11704EB1171C1F304
:105100000F14002CE2D17E200DF8060000250BE0E4
:10511000785D812807DB785DFE2804DC701EA842DC
:1051200000D106E06D1C6D1CB54202D2785D2028CE
:10513000EED100BF00BF082E04D23046761C1DF809
:10514000000000E0202029466D1C7854082DF2D381
:10515000BDE8FC8730B5014600200B2200BF43109C
:1051600003EBC01411F8015B6319D8B2531E1A0087
:10517000F5D130BD2DE9F047044600212046FFF768
:10518000F9FD074617B13846BDE8F0874FF0FF0933
:10519000CA4600BF21692068FFF780FB074607B1B8
:1051A00054E065692E780EB904274FE0E87A00F0E4
:1051B0003F08E52E05D018F0080F05D0B8F10F0F05
:1051C00002D04FF0FF093AE0B8F10F0F1CD1E069AF
:1051D000A0B316F0400F06D095F80DA026F04006BB
:1051E000B146E08820844E450AD1687B504507D1FE
:1051F0002946E069FFF795FE10B1A9F1010000E032
:10520000FF2000F0FF091AE0B9F1000F05D1284690
:10521000FFF7A0FF504500D118E04FF0FF094FF60F
:10522000FF702084A069C07A10F0010F07D10B2213
:105230002846A169FFF715FB00B907E0FFE7002149
:105240002046FFF7E5FD0746002FA3D000BF3846F4
:105250009AE72DE9F04704464FF0FF09CA460427B4
:105260004BE021692068FFF719FB074607B147E0CB
:1052700065692E780EB9042742E0E87A00F03F080D
:10528000E52E06D000BF18F0080F05D0B8F10F0FBB
:1052900002D04FF0FF0929E0B8F10F0F1AD116F034
:1052A000400F06D095F80DA026F04006B146E088E4
:1052B00020844E450AD1687B504507D12946E069D4
:1052C000FFF774FE10B1A9F1010000E0FF2000F02B
:1052D000FF090BE0B9F1000F04D12846FFF73AFFB0
:1052E000504502D04FF6FF70208409E0002120468F
:1052F000FFF78EFD074607B102E020690028B0D114
:1053000000BF0FB1002020613846BDE8F0872DE9CD
:10531000F04F85B00446D4F81880D4F81CB00C22A5
:10532000414601A8FFF786FA9DF80F0010F0200F04
:1053300006D0062005B0BDE8F08F000010960008EA
:105340009DF80F0010F0010F24D0002088F80B000A
:10535000E06101270DE03B465A4601A94046FFF7B0
:105360009AFE2046FFF706FF054605B103E0781CCC
:1053700087B2642FEFDB00BF642F01D10720D9E78C
:10538000042D01D02846D5E79DF80F0088F80B00C2
:10539000C4F81CB09DF80F0010F0020F0ED00026CC
:1053A00001E0701C86B23BF816000028F9D106F126
:1053B00019000D2190FBF1F086B200E001260021DA
:1053C0002046FFF7D7FC05460DB12846B2E700207E
:1053D0000746049000BF21692068FFF75FFA054681
:1053E00005B119E0606990F80090B9F1E50F02D0BD
:1053F000B9F1000F08D10FB9E0880490781C80B291
:105400000746B04201D107E0002701212046FFF7FF
:10541000FFFC0546002DDED000BF4DBB012E27DD71
:1054200020460499FFF7A6FC05460DBBA069FFF7CF
:1054300091FE0090701E86B200BF21692068FFF7C0
:105440002DFA054605B112E0F2B26169E069009BF0
:10545000FFF7E4FD01202168087100212046FFF7D5
:10546000D7FC05461DB9701E80B20600E5D100BF0D
:10547000D5B921692068FFF711FA0546A5B9D4F816
:1054800014A0202200215046FFF7E1F90B225046DC
:10549000A169FFF7CFF9A069C07A00F018008AF877
:1054A0000C00012021680871284643E770B50446C6
:1054B000E688208CA0F57F42FF3A01D1304600E01B
:1054C000208C01462046FFF755FC0546E5B900BF94
:1054D00021692068FFF7E2F9054605B110E0E520F3
:1054E00061690870012021680871E088B04200DB22
:1054F00006E000212046FFF78BFC0546002DE7D093
:1055000000BF042D00D10225284670BD2DE9F34FC0
:1055100083B0834604980068019002E00198401C23
:105520000190019800782F28F8D0019800785C2825
:10553000F4D0DBF81C900025A84600BF404608F1D7
:10554000010801990C5C202C03DB2F2C01D05C2C72
:1055500000D133E0FF2D03D3062005B0BDE8F08F66
:10556000E4B2812C14DBE0B2FE2811DC404608F1E5
:10557000010801990E5C402E01DB7E2E05DD802E98
:1055800001DBFE2E01DD0620E7E706EB042084B2F6
:105590000121204602F036FA04460CB90620DCE769
:1055A000802C06DA2146F8A0FFF76EF908B1062034
:1055B000D3E728466D1C29F81040BFE700BF0198CB
:1055C00000EB080104980160202C01DA042000E0BF
:1055D00000200746012D04D1681E39F810002E283E
:1055E0000BD0022D24D1681E39F810002E281FD1AF
:1055F000A81E39F810002E281AD1002029F815000D
:1056000082460AE0AA4501D22E2000E02020DBF8E5
:10561000181001F80A000AF1010ABAF10B0FF1D3D0
:1056200047F02000DBF8181001F80A00002094E78A
:1056300008E0681E39F81040202C02D02E2C00D033
:1056400002E06D1E002DF4D100BF0DB9062084E7E5
:10565000002029F815000B222021DBF81800FFF7A5
:10566000F6F84FF0000801E008F1010839F81800D9
:105670002028F9D039F818002E28F5D0B8F1000FFD
:1056800001D047F0030700E06D1E25B1681E39F810
:1056900010002E28F8D14FF0000A5646082002903C
:1056A00000BF404608F1010839F8104004B962E033
:1056B000202C03D02E2C04D1A84502D047F003079C
:1056C000EFE70298824501D2A84514D102980B2831
:1056D00002D147F003074EE0A84501D047F0030789
:1056E000A84500D947E0A8464FF0080A0B200290D1
:1056F000B006060ED5E7802C09DB204602F0C8F97B
:105700000021009002F07EF9044647F00207FF2CCA
:1057100010DD0298401E504504D847F00307DDF81D
:1057200008A0BEE7221250460AF1010ADBF8183041
:105730001A5419E024B1214696A0FFF7A5F818B134
:105740005F2447F003070FE0412C04DB5A2C02DCF6
:1057500046F0020608E0612C06DB7A2C04DC46F0F9
:105760000106A4F1200084B250460AF1010ADBF8D8
:1057700018301C5495E700BFDBF818000078E528C6
:1057800003D10520DBF8181008700298082801D111
:10579000B006060E06F00C000C2803D006F003003D
:1057A000032801D147F0020717F0020F0BD106F0D2
:1057B0000300012801D147F0100706F00C0004286F
:1057C00001D147F00807DBF81800C7720020C4E6D3
:1057D0002DE9FC5F81460F4607F10908D9F8100052
:1057E000002851D0D9F81440207B0190002514E006
:1057F000665D202E00D112E0052E00D1E52601982D
:1058000010F0080F06D0412E04DB5A2E02DC06F100
:105810002000C6B208F8016B6D1C082DE8D300BF4C
:10582000207A202819D02E2008F8010B082511E035
:10583000665D202E00D10FE0019810F0100F06D009
:10584000412E04DB5A2E02DC06F12000C6B208F815
:10585000016B6D1C0B2DEBD300BFE07A3872E07F3B
:105860000106A07F41EA0041607F41EA0020217FDC
:1058700008433860217E607E41EA0020B880A17D27
:10588000E07D41EA0020F880002088F80000B86937
:10589000D0B3F869C0B3D7F818B00025D9F8100014
:1058A00070B3B9F82000A0F57F41FF3928D0D9F8AE
:1058B0001C0000901CE00021504602F0A3F8824634
:1058C000BAF1000F01D1002519E0BAF1FF0F05DD93
:1058D0004FEA2A2228466D1C0BF80020F869401E6A
:1058E000A84201D800250AE028466D1C0BF800A04C
:1058F000009830F8021B5FEA010A0090DBD100BF7C
:1059000000200BF8050000BFBDE8FC9F2DE9F34126
:105910000446019800782F2803D0019800785C286D
:1059200005D10198401C01900020A06002E0206891
:105930008069A06001980078202807D200212046C5
:10594000FFF718FA07460020606144E000BF01A994
:105950002046FFF7DBFD074607B13BE02046FFF797
:1059600009FC0746A069C67AEFB1042F00D031E0E8
:1059700016F0200F12D00020A0606061002716F002
:10598000040F0FD1E3E70000222A3A3C3E3F7C7F20
:10599000000000002B2C3B3D5B5D000016F0040F67
:1059A00000D1052716E016F0040F00D012E065695B
:1059B000E87A10F0100F01D105270BE0A97EE87EF0
:1059C00041EA00212A7D687D42EA002041EA004048
:1059D000A060BCE700BF3846BDE8FC8170B5044656
:1059E0000D46607801232A4604F1340101F053FF8B
:1059F00008B1032070BD94F8321294F8330241EAE2
:105A00000020A0F52A41553901D00220F2E794F890
:105A10006D00010694F86C0041EA004194F86B00B7
:105A200041EA002094F86A10084320F07F40FB49C7
:105A3000884201D10020DDE794F88900010694F83E
:105A4000880041EA004194F8870041EA002094F878
:105A50008610084320F07F40F049884201D10020A1
:105A6000C8E70120C6E72DE9F74F86B00698006821
:105A700000900098007830380590059809280AD8D9
:105A8000009840783A2806D10098801C009006992A
:105A90000098086002E0E248007805900598022826
:105AA00003D30B2009B0BDE8F08FDE49059851F80B
:105AB0002040079804600CB90C20F3E7207878B1F7
:105AC000607801F0E5FE804618F0010F08D10898D3
:105AD00020B118F0040F01D00A20E3E70020E1E72D
